:020000020000FC
:02000000A5C099
:0200040004C036
:10000C0044C00F931F930FB70F9373FF0AC0C1988F
:10001C00B99A0091600010916100080F191F4801F6
:10002C002FC000916200109163000215120559F463
:10003C007860C198B99A0091600010916100080F26
:10004C00191F480119C0080F191F4801C395C33067
:10005C00B8F0CC27A0916200B091630074FF02C08D
:10006C0011970AC0119628E530E0A217B30720F0CB
:10007C00B998C19A7B7F2BBEA0936200B0936300AA
:10008C000F910FBF1F910F9118950F931F93AF9363
:10009C00BF930FB70F93019672FF12C0881581F4AE
:1000AC00991571F4B9990AC0C198B99A0091600078
:1000BC0010916100080F191F480102C0B998C19A2C
:1000CC008E1529F49F1519F47E7FB49971600F91E8
:1000DC000FBFBF91AF911F910F9118952030A1F4D4
:1000EC003C3191F44F3581F45F3071F473FD089518
:1000FC0072FD06C008E510E00093620010936300E7
:10010C00746100E20BBF0895203079F43C3169F43E
:10011C004F3559F4533C49F473FF05C001E000938B
:10012C00620020926300777E0895203041F43C31C8
:10013C0031F44F3521F4533011F4C09808950895DB
:10014C000FE90DBF00271FEF180108E108BB00E005
:10015C0007BB64D02BBE01E005BB02E00FBD08E776
:10016C0006BF02E003BF04E009BF04E010E0009307
:10017C0060001093610008E510E00093620010939A
:10018C006300722DCC2768E17894A895B49902C0CD
:10019C007F7D23C075FD21C070628C010C191D0977
:1001AC00ACE0B0E00A171B0780F4A8E0B0E00A1737
:1001BC001B0758F08894551F441F331F221F5E7F66
:1001CC0070FD51606A9519F489DF552768E16C015F
:1001DC0005E010E00C0D1D1D7801B399D6CF72FF10
:1001EC000FC073FF07C001E0009362002092630010
:1001FC00777E10C074FF02C07F7E0CC070610AC095
:10020C0008E510E00093620010936300746100E253
:10021C000BBF00C0A895B39BFDCFB7CF10EA7727D3
:10022C000027A8950A95E9F77A95D1F71A95B9F7A9
:02023C00089523
:00000001FF
