:020000040000FA
:06000000020107021F537C
:03002B000223CBE2
:030033000223ADF8
:03003B000223ECB1
:0300430002236134
:03005300021FC6C3
:03006B00022387E6
:10008300021DBFE5C754F84401F5C77901220000FA
:100093000080FB120086B900030200F1E4792178A5
:1000A30008B800028004F709D8FCE479297802B87B
:1000B30000028004F709D8FCE490028178BA790938
:1000C3008002F0A3D8FCD9FA7A3A7B0B90013778F7
:1000D300B679028015E493A3AD82AE838A828B83C3
:1000E300F0A3AA82AB838D828E83D8E9D9E7758288
:1000F30013758397740312011975829175830074C4
:100103000012011975D00075813F751881751902A8
:10011300759F00020096C09FF59FE473D09F22D085
:1001230083D082C09FE493C0E0740193C0E0740263
:1001330093F59F22FF0000B4000028002800283018
:1001430075A000A000A000A00000080008E001F0D6
:10015300001000100010001000100010005000509C
:1001630000500010001000D0070000000000000F36
:100173000001000500307507001000010081FF0039
:10018300000000FFE4040205EA04FF020202080281
:100193005000A0000000E80302348101000029811F
:1001A300023E81010000910B022E81010000B30287
:1001B300023E81010000920B023081010000C9025E
:1001C300023E81010000930B023281010000CB0249
:1001D300023E81010000940B024081080000CC0222
:1001E300023E81010000950B023681010000960B4F
:1001F300FF0100FF20023481010000D980023E810B
:10020300010000FA0B0238810000000000022C817B
:100213000300001903960A960A960A960A960A9606
:100223000A960A960A960A960A960A960A960A1849
:100233000D300D120DFFFF11071E948DF1483194FF
:10024300BA754C3E5000003D710201060909424C4B
:1002530045204D696E6900000000000000000000A9
:10026300000000000000000044696D6D65723031CC
:10027300000000000000000000000000000A0F0062
:1002830000100F01E803053F100AFF00013075035A
:100293000201060000000000000000000000000052
:1002A300000000000000000000000000000000FF4C
:1002B300FF0600800CE80310436861726163746594
:1002C300726973746963203200023481010000266D
:1002D30081023E81010000BD0C10A18003000000DB
:1002E30000024481010000BE0C120122097E0012AB
:1002F3000122207E00120122517E001201228C7EF7
:1003030000120122B67E00120122E07E00120122B9
:10031300F77E001201220E7F00120122257F0012B8
:1003230001224E7F00120122617F00120122777F9A
:1003330000120122A17F0012012216A5021201223E
:100343001AA60212012252A60212012275A6021255
:10035300012280A602120122A3A602120122B2A741
:100363000212012287A80212012202A9021201220B
:100373008AA902120122C5A902120122FCA90212B2
:1003830001228AAA0212012263AB02120122C3AB29
:1003930002120122CEAB021201224DAC0212012243
:1003A30050AC0212012253AC02120122E2AC02123F
:1003B3000122E5AC0212012215AD021201223FAD6A
:1003C300021201222DAE02120122DFAE021201221D
:1003D300CEDF02120122F6DF0212012224E0021212
:1003E30001225BE002120122B9E00212012204E1C0
:1003F300021201224FE1021201228FE102120122B5
:10040300D5E10212012203E202120122C0E202122A
:100413000122CAE202120122D7E2021201220AE3F6
:1004230002120122D6E302120122E2E302120122A6
:10043300FAE30212012204E402120122739203126C
:100443000122819203120122999203120122B19295
:100453000312012234B401120122E0B40112012279
:100463005BB5011201227CB601120122B8B601125A
:10047300012261B70112012248B801120122ACB96D
:100483000112012203BA0112012284BA01120122CC
:1004930074BB01120122C1BB0112012247BC01122C
:1004A300012279BC011201228DBE01120122CFBEAD
:1004B30001120122EDBE0112012270BF01120122BD
:1004C30044C0011201220CC10112012263C70212AE
:1004D300012236C802120122DFC80212012232C9E8
:1004E30002120122E2C9021201226ECA0212012281
:1004F3005ACB0212012289CB021201229CCC021296
:100503000122E4CC02120122B9CD02120122F5CD5F
:100513000212012211CE02120122C69503120122F8
:1005230056F1021201226CF10212012292F102121F
:100533000122AEF202120122B8F202120122EDF3FD
:1005430002120122E5F402120122A7DA02120122A9
:10055300D7DB021201220ADC0212012254DC02124E
:1005630001221BDE021201225A9501120122C495B7
:100573000112012223970112012233970112012252
:10058300609701120122B7970112012260980112AC
:100593000122679901120122319A01120122919BD2
:1005A30001120122D49B01120122799C0112012222
:1005B3009F9C01120122AD9E01120122B29E0112E3
:1005C3000122B7A00112012204A10112012277A185
:1005D30001120122AAA1011201224CA2011201223D
:1005E300F5A2011201222DA30112012230A301124F
:1005F300012278A301120122B8A3011201220FA440
:100603000112012200800312012218800312012229
:10061300608003120122768003120122BD8003123F
:100623000122D181031201225E8203120122A982D7
:10063300031201226024001201226C240012012201
:10064300A72400120122EC2400120122AC2500127F
:1006530001223226001201225E2600120122972671
:1006630000120122D52800120122B92A0012012208
:100673009F2C00120122E22D0012012230300012C1
:1006830001224231001201228D32001201229D33D8
:1006930000120122BA3300120122F53300120122A3
:1006A3001734001201227A34001201223B3900125E
:1006B3000122D03900120122213A00120122483AC4
:1006C300001201229A3A00120122B83A00120122C2
:1006D300123B00120122113C00120122953C001230
:1006E300012279FB0112012283FB01120122C6FBC5
:1006F30001120122E1FB0112012271FC011201220C
:1007030099FC01120122D6FC011201220DFD0112F6
:10071300012236FD01120122ABFD01120122C0FDAF
:1007230001120122D5FD0112012206FE011201224E
:100733001AFE011201223FFE0112012279FE01126B
:100743000122A5FE0112012228FF0112012271FFDD
:10075300011201229BFF01120122C6FF0112012295
:10076300808E03120122158D02120122438D021283
:100773000122918E02120122718F02120122908FA7
:10078300021201220D900212012250900212012244
:10079300A69102120122679202120122EE94021222
:1007A30001228F950212012285960212012282975D
:1007B30002120122DC98021201226799021201221D
:1007C3009EFE0212012207FF021201225BFF0212A8
:1007D300012282FF02120122B3FF021201228BE4E3
:1007E30002120122F8E4021201223FE50212012261
:1007F30057E60212012253E70212012236E80212DF
:10080300012250AF0212012292AF0212012264B000
:10081300021201223DB10212012237B20212012259
:1008230019B30212012282B30212012238B4021256
:100833000122ACB40212012218B50212012241B501
:1008430002120122BBB50212012254B60212012286
:10085300B9B602120122CEB60212012214B7021255
:1008630001222DB70212012292B70212012295B77B
:1008730002120122A5FB02120122CDFB0212012268
:100883000BFC02120122C9FC0212012230FD0212EA
:1008930001224CFD0212012274FD02120122A4FD69
:1008A30002120122B3FD0212012230FE02120122C2
:1008B30056FE02120122FCA401120122DAA6011241
:1008C30001220CA90112012248A90112012275A9D2
:1008D300011201225FAA01120122AAAA0112012216
:1008E300F5AA0112012207AB0112012247AB011243
:1008F30001227CAB01120122CAAB01120122F9AB26
:10090300011201221CAC0112012269AC0112012265
:10091300EEAC0112012208AF0112012247B101120C
:10092300012288B1011201222AB3011201226BB301
:1009330001120122DEB30112012200800212012200
:10094300FE8002120122978702120122B889021245
:100953000122838B02120122EB8C02120122FC3C46
:1009630000120122AB3D00120122F13D00120122CF
:10097300313F00120122C7400012012241410012FF
:1009830001225C4100120122D741001201223143AE
:100993000012012291440012012297450012012204
:1009A300F846001201221147001201226F4700127C
:1009B30001225D48001201229048001201220049E1
:1009C300001201227A4900120122C44900120122B5
:1009D3008E4A00120122634B00120122424C001284
:1009E3000122CD4C001201223B4D00120122AF4DDA
:1009F30000120122DA4D00120122994E0012012247
:100A0300FE4F001201221B50001201223A50001225
:100A130001222B51001201225051001201227A515E
:100A230000120122F551001201224F52001201223D
:100A3300B85300120122665400120122A754001277
:100A43000122A5ED01120122F3ED01120122FFEDB6
:100A530001120122DDEE011201220EEF0112012229
:100A63003FEF01120122BFEF01120122F7EF011242
:100A7300012249F00112012286F001120122A3F2A0
:100A830001120122C9F401120122B4F6011201225A
:100A93009EF80112012255240012012247810112FE
:100AA3000122778101120122508801120122D58986
:100AB30001120122D28F01120122BA9001120122E6
:100AC300F790011201221A91011201224B91011296
:100AD30001225491011201225E91011201224C92D2
:100AE30001120122429301120122D7540012012262
:100AF300D65800120122DC5800120122176000129E
:100B030001223065001201225EF80212012258F917
:100B130002120122CCF9021201220AFA0212012264
:100B23007EFA02120122F7FA0212012200FB0212DC
:100B330001220CFB0212012221FB021201225FFBA4
:100B43000212012275FB02120122F8E802120122AD
:100B530005E9021201221FE9021201225EE90212D3
:100B630001229CE90212012201EA0212012216EA81
:100B73000212012221EA021201222EEA02120122AA
:100B830045EA0212012253EA021201225EEA02122C
:100B930001226AEA0212012279EA0212012284EA9C
:100BA30002120122A7EA021201224EEB02120122D3
:100BB3005EEB0212012278EB0212012295EB021284
:100BC3000122B1EB02120122D6EB02120122E1EB68
:100BD30002120122F6EB021201220AEC0212012296
:100BE3006BEC0212012271EC0212012277EC021269
:100BF30001227DEC0212012295EC02120122C8ECC3
:100C03000212012296D1011201221AD201120122EB
:100C1300C9D20112012228D40112012249D601129C
:100C2300012235D7011201226AD7011201228CD782
:100C3300011201223BD80112012233DA01120122EF
:100C43005CDA01120122EEDA0112012220DB011229
:100C530001222DDB0112012284DB01120122AADB16
:100C63000112012217DE011201221ADF01120122F1
:100C730072DF0112012225C3011201222FC40112C6
:100C8300012216C50112012220C50112012242C50B
:100C9300011201224EC501120122E7C601120122EF
:100CA30016C70112012232C8011201228BC8011298
:100CB3000122F1C901120122D0CA011201222CCB57
:100CC3000112012299CB01120122D4CB011201227C
:100CD30013CC01120122CCCE01120122E6CE011265
:100CE300012272CF0112012280CF01120122D9CF3A
:100CF30001120122E7CF011201225AD0011201226F
:100D0300BED00112012208D101120122E899021278
:100D130001220A9A02120122309C02120122459FEB
:100D2300021201225DA00212012210A1021201226D
:100D3300F2A102120122DC8903120122018A0312A9
:100D43000122738A03120122E9BF02120122F2BFB8
:100D530002120122FBBF02120122D2C0021201229F
:100D630083C202120122B9C202120122F3C2021289
:100D7300012229C30212012263C30212012297C373
:100D830002120122C3C3021201220CC40212012265
:100D930046C4021201228FC402120122E7C40212C6
:100DA30001221CC50212012277C502120122B1C51C
:100DB3000212012202C60212012238C602120122C5
:100DC30072C602120122A0C602120122C3C6021277
:100DD30001220094031201222C940312012287940E
:100DE30003120122919403120122A19403120122FE
:100DF30039D50212012243D50212012281D50212F2
:100E03000122CAD50212012204D6021201225ED6A1
:100E1300021201227FD60212012288D60212012277
:100E2300D9D60212012202D7021201220CD70212D2
:100E3300012278D70212012206D80212012254D8C5
:100E4300021201228AD80212012211D902120122AE
:100E530051D90212012289D9021201229BD902120D
:100E63000122BAD902120122C3D9021201227DDA68
:100E730002120122B496031201229D900312012251
:100E8300DD8703120122138803120122498803120A
:100E93000122A289031201224A96031201226096BB
:100EA300031201226A960312012245ED0212012266
:100EB3005EED0212012202EE0212012242EE021242
:100EC30001225BEE021201228FEE02120122DCEEFE
:100ED3000212012210EF0212012252EF021201222A
:100EE300979103120122C09103120122E991031287
:100EF30001222B920312012270920312012286CE49
:100F030002120122CED002120122B7D10212012213
:100F130076D20212012283D402120122D1D4021208
:100F23000122B09703120122699703120122E66995
:100F3300001201224A6C00120122FC6D00120122F0
:100F4300EE6E00120122736F00120122F16F001284
:100F530001221E7000120122427300120122BC738F
:100F630000120122AB7400120122E5740012012267
:100F7300257500120122DF7600120122327700125A
:100F830001227B7700120122E977001201221B78EC
:100F93000012012233780012012248790012012243
:100FA300587900120122887A00120122AA7A0012CB
:100FB3000122E07A00120122857C00120122C47C06
:100FC30000120122E47D001201224A93031201223E
:100FD3005B9303120122B37F00120122F27F0012FE
:100FE3000122269803120122AB9403120122BB941F
:100FF30003120122D0940312012236950312012217
:10100300998F031201221E9003120122849003126E
:101013000122088D03120122318D031201229C8DBE
:1010230003120122ED8D03120122468E03120122C7
:10103300EEFF01120122EFF4021201227FF50212E8
:101043000122FDF50212012286F6021201221BF78C
:1010530002120122A5F702120122AFF702120122A6
:10106300BEF702120122D4F702120122E7F702129D
:10107300012247F8021201225BF802120122409575
:1010830003120122A99503120122BB950312012227
:10109300818B03120122D68B03120122448C03128B
:1010A3000122B48C031201227285031201229C8552
:1010B30003120122718603120122658703120122A2
:1010C300B9B70212012276B802120122B1B8021294
:1010D3000122D9B8021201223BB90212012287B9B7
:1010E30002120122E0B90212012271BA0212012294
:1010F30073BB0212012230BD02120122B2BD0212E1
:10110300012217BE021201222EBE021201223EBF8D
:10111300021201227CBF02120122C0DF011201224E
:101123004AE301120122D2E40112012229E501124C
:10113300012248E501120122C6E50112012264E7FA
:101143000112012248E80112012232EC01120122AC
:1011530002ED01120122D38203120122FF82031244
:1011630001221C83031201225983031201229C834F
:10117300031201223C8403120122DC970312012291
:10118300089803E066701008A3E066700A08A3E0FD
:1011930066700408A3E06622C3E7960809E7960889
:1011A30009E7960809E79622C3E09608A3E09608A4
:1011B300A3E09608A3E09622C008C3E096F50808CA
:1011C300A3E096420808A3E096420808A3E09645E8
:1011D300087001D3D00822080808EAC0E0EBC0E099
:1011E30086F0E7A4FA180986F0E7A42AFA18098614
:1011F300F0E7A42AFA180986F0E7A42AFA1986F078
:10120300E7A4FBE5F02AFA190886F0E7A42BFBE52F
:10121300F03AFA190886F0E7A42BFBE5F03AFA183E
:10122300180986F0E7A4C5F02BFBE43AFA1908E79E
:10123300C5F0C6A426F6E5F03BFBE43AFA1886F0BF
:10124300E7A4F6E5F00826F6E43B08F6E43A08F6E8
:10125300D0E0FBD0E0FA226016080808C6C313C624
:1012630018C613C618C613C618C613C6D5E0EA2295
:101273007009080808226016181818C6C333C60870
:10128300C633C608C633C608C633C6D5E0EA22E667
:1012930027F60809E637F60809E637F60809E637B8
:1012A300F622E026F608A3E036F608A3E036F608B1
:1012B300A3E036F622E026F008A3E036F008A3E028
:1012C30036F008A3E036F022C3E697F60809E6975E
:1012D300F60809E697F60809E697F622C3E096F0C2
:1012E30008A3E096F008A3E096F008A3E096F022A6
:1012F300E657F60809E657F60809E657F60809E639
:1013030057F622E056F608A3E056F608A3E056F691
:1013130008A3E056F622E056F008A3E056F008A32F
:10132300E056F008A3E056F022E0F608A3E0F60842
:10133300A3E0F608A3E0F622E6F008A3E6F008A38C
:10134300E6F008A3E6F022E0FAA3E0FBA3E0FCA3A7
:10135300E0FD22EAF0A3EBF0A3ECF0A3EDF022E032
:10136300F8A3E0F9A3E0FAA3E0FB22E8F0A3E9F095
:10137300A3EAF0A3EBF022CAC0E0E6F0A308DAFA8E
:10138300D0E0FA22CAC0E0E0A3C582CCC582C583FF
:10139300CDC583F0A3C582CCC582C583CDC583DA11
:1013A300E6D0E0CA22C3E498F8E499F91213E9807D
:1013B30026C3E49AFAE49BFBE920E7E91213E9E484
:1013C30098F8E499F922C3E498F8E499F91213E937
:1013D300E498F8E499F9C3E49AFAE49BFB22EB203E
:1013E300E7CFE920E7E0B90010BB0008E88AF08402
:1013F300F8AAF022E4FBC8FA22EB70227B10C83370
:10140300C8C933C9335007C39AC3DBF280069A5065
:10141300012ADBEAC833F4C8C933F4C9FA2275F0E8
:1014230008E4C833C8C933C933C99AC99B5004C92E
:101433002AC93BD5F0ECFBC833F4C8E4C9FA2260EF
:101443000D08C6A2E713C618C613C6D5E0F322607B
:101453000C08C6C313C618C613C6D5E0F42270041D
:1014630022600D18C6C333C608C633C6D5E0F418C8
:1014730022251810AF08F518400C15198008F51827
:1014830040021519D2AF2200C0D0251810AF08F5BD
:1014930018500C05198008F51850020519D2AFD061
:1014A300D0222518F58210AF08F518400C151980C5
:1014B30008F51840021519D2AF851983222518F5AE
:1014C30082E43519F583222518F8E43519F9222524
:1014D30018FAE43519FB222518FCE43519FD22E43A
:1014E300732518C582C0E0E51934FFC583C0E0E564
:1014F30018C3958224F810AF088583198582188054
:1015030008858319858218D2AFCEF0A3E520F0A316
:101513007808E608F0A3DEFAEFF0A3E58124FAF8F1
:10152300E608F0A3E608F0A3E608F0A30808E60837
:10153300F0A3E608F0A315811581D0E0FED0E0F812
:10154300158115811581E8C0E0EEC0E0222518C59C
:1015530082C0E0E51934FFC583C0E0E518C3958276
:1015630024F910AF088583198582188008858319AB
:10157300858218D2AFCEF0A3E520F0A37808E60861
:10158300F0A3DEFAEFF0A3E58124FBF8E608F0A36D
:10159300E608F0A30808E608F0A3E608F0A315811F
:1015A3001581D0E0FED0E0F815811581E8C0E0EEAA
:1015B300C0E022851983851882E0A3FEE0A3F5200D
:1015C3007808E0A3F608DFFAE0A3FFE0A3C0E0E0B9
:1015D300A3C0E0E0A3C0E0E0A3C0E0E0A3C0E0104C
:1015E300AF08858218858319800885821885831939
:1015F300D2AFD083D08202011F851983851882E080
:10160300A3FEE0A3F5207808E0A3F608DFFAE0A341
:10161300FFE0A3C0E0E0A3C0E0E0A3C0E0E0A3C01C
:10162300E010AF08858218858319800885821885A4
:101633008319D2AFD083D08222C0D02518C582C0EF
:10164300E0E51934FFC583C0E0E518C3958224F3B0
:1016530010AF0885831985821880088583198582D0
:1016630018D2AFC8F0A3E9F0A3EAF0A3EBF0A37993
:1016730008E709F0A3D8FAECF0A3EDF0A3EEF0A38A
:10168300EFF0A3D0E0F0A3D0E0F0A3D0E0F0A3E527
:1016930020F0A3E5F0F0A322851983851882E0C02A
:1016A300E0A3E0F9A3E0FAA3E0FBA37808E0F608DF
:1016B300A3DFFAE0FCA3E0FDA3E0FEA3E0FFA3E0C9
:1016C300C0E0A3E0C0E0A3E0F5D0A3E0F520A3E0F1
:1016D300A3F5F010AF0885831985821880088583E8
:1016E30019858218D2AFD082D083D0E0F8D0E0320F
:1016F30074048006740280027401C0E0F4041214BE
:10170300A5D0E012137A227404800474028000CC02
:10171300C0E0EDC0E0E518C39CCCAD1950011D102D
:10172300AF068C188D1980068C188D19D2AF121341
:1017330087D0E0FDD0E0FC22D083D082E9C0E0E492
:1017430093A3C386F0C5F095F0F908E493A386F05C
:10175300C5F095F0700BE493A3C3994005E90480A9
:1017630002A3E475F002A42582F582E5F03583F542
:1017730083D0E0F9E493A3C0E0E493C0E022D083F4
:10178300D082ECC0E0EDC0E0E493A3FCE493A3FDBE
:10179300ED4C600D1217CDEC24FFFCED34FFFD8002
:1017A300EFE493A3FCE493A3FDED4C600D12180C3E
:1017B300EC24FFFCED34FFFD80EFD0E0FDD0E0FC36
:1017C300E493A3C0E0E493C0E022C0E0C3E49396B3
:1017D300087401939618400FE49366700808740127
:1017E30093661870007019A3A3C3E4939608740159
:1017F300939618A3A3400DD0E0D0E0D0E00217BD2C
:10180300A3A3A3A3A3A3D0E022C0E0C0F088F0E485
:10181300936670080874019366187000A8F0A3A378
:10182300700BD0F0D0E0D0E0D0E00217BDA3A3D07E
:04183300F0D0E022EF
:1018380074F5121550EAFEEBFFEE2434F8EF34008D
:10184800F988088909EE2435F582EF3400F583E03C
:10185800F8EE2437F582EF3400F583E0F50AEC85DD
:101868000AF0A4FCAAF0850AF0EDA42AFDE82CF8F9
:10187800E43DF97A257B001213E9EA850882850997
:1018880083F0F8740758F97401B900028004C3336F
:10189800D9FCFAE8131313541FF8EE28F8EF3400B4
:1018A800F9E8245DF582E93400F583E05A6008EE32
:1018B8002434F582EF802CEE2434F582EF3400F5E1
:1018C80083E0C0E0EE2436F582EF3400F583E0F5DE
:1018D800F0D0E084A8F0EE28F8EF3400F9E82438D6
:1018E800F582E93400F583E0F97F040215FC74F50C
:1018F800121550EAFEEBFFEE2434F582EF3400F5C2
:1019080083E0C0E0EE2435F582EF3400F583D0E0C3
:10191800F08E828F83A3A3A3A3A3A3A3C082C083B3
:101928008E828F83A3A3A3A3A3E0F8A3E0F9D083B7
:10193800D082E0C398F508A3E099F509EE247FF575
:1019480082EF3400F583E064017069EE2480F5824B
:10195800EF3400F583E0F8A3E0F98E828F83A3A328
:10196800A3A3A3A3A3E0FCA3E0FD8E828F83A3A37C
:10197800A3A3A3E0FAA3E0FBC3EA9CEB9D5010C32A
:10198800EC98ED99402EC3EA98EB995027800EC346
:10199800EA98EB994007C3EC98ED9940177CDC7DF9
:1019A80004EEFAEFFB1209F4EE247FF582EF34001F
:1019B800F583E4F0EE2434F8EF3400F9E8FCE9FDAF
:1019C800EE2435F582EF3400F583E0F8EE2437F5A0
:1019D80082EF3400F583E0F50AE508850AF0A4F5FE
:1019E80008AAF0850AF0E509A42AF509E82508F807
:1019F800E43509F97A257B001213E9EA8C828D8394
:101A0800F0F8740758F97401B900028004C333D997
:101A1800FCFAE8131313541FF8EE28F8EF3400F912
:101A2800E8245DF582E93400F583E05A6008EE2485
:101A380034F582EF802CEE2434F582EF3400F58300
:101A4800E0C0E0EE2436F582EF3400F583E0F5F0EF
:101A5800D0E084A8F0EE28F8EF3400F9E82438F54F
:101A680082E93400F583E0F912234D0218F1C082AF
:101A7800C083851882851983E0F8A3E0F9C3EA9C3E
:101A8800EB9D5010C3EC98ED99401BC3EA98EB9975
:101A98005014800EC3EA98EB994007C3EC98ED996F
:101AA8004004790180027900D083D08222EAC39C65
:101AB800FAEB9DFB2274EF1215509003A2E0640824
:101AC8006005E06407702A9061C8E060249003D044
:101AD800E0F4601DE0F875F003A4C8AAF02AF974D0
:101AE800D228FE740339FF8E828F83A3A3A3E070EC
:101AF80003021BED906060E0C0E0EE2468F582EF21
:101B08003400F583D0E0F0750C45750D05750800B7
:101B1800750900E5D914F50AE5D95403F50E6017DF
:101B28007403650E605CE50A6010EE2467F582EFC9
:101B38003400F583E07003021BD2900540E0640195
:101B4800602AEE2482F582EF3400F583E0600478A1
:101B58000480027800850A08E508C398FA95E0FB36
:101B68001208C88A088B09EA45097005120BE68035
:101B780074EE2482F582EF3400F583E070048A0C59
:101B88008B0DE50A6012850C82850D83F50BE5D96E
:101B9800F0A3150BE50B70F6EE2482F582EF340006
:101BA800F583E0604474FC250AF50A780C1216F7F0
:101BB800AC0AA90EEEFAEFFB120A90740212148A0C
:101BC800E97026AA08AB09121096793D8E828F8398
:101BD800A3A3A3A3E0FA7B0012079CEEFAEFFB1283
:101BE8000A0C120AA2790080747403650E60568587
:101BF8000A1075110078101216F7AC0CAD0DAA0872
:101C0800AB09120A6C740212148AEE2468F582EF8A
:101C18003400F583E064807004747F8001E0F50C83
:101C2800780C1216FBE50EF50C780C1216FBA90AB7
:101C3800AC08AD099003D0E0FA7B0012076074028B
:101C480012148A80139003A2E06408600BAC0CADF8
:101C58000DEEFAEFFB120AFC120BF279017F0A0271
:101C680015FC74F512155074FC121474EAFEEBFF9F
:101C78008908A2AFE433F509C2AF806AEE2463F89D
:101C8800EF3400F97A007B00A2AFE433F50AC2AF63
:101C980088828983E0FCA3E0FDEC4D603A88828964
:101CA80083E0FAA3E0FB8A828B83E0FCA3E0FD8853
:101CB800828983ECF0A3EDF08A828B83E4F0A3F0B1
:101CC80088828983E0FCA3E0FDEC4D700A88828954
:101CD80083A3A3E4F0A3F0E50AA2E092AF12109662
:101CE8009004E3E004F0EE2463F582EF3400F5831A
:101CF800E0F8A3E0F9E849603DEE2463F582EF34AB
:101D080000F583E02402FAA3E03400FBEA2402F59C
:101D18000AEB3400F50B780A1216F78A828B83E0F7
:101D2800FCA3E0F9EEFAEFFB120A30740212148AEF
:101D3800E97003021C849004E3E060639004E4E02B
:101D4800F89004E3E0C398500C7402650870509052
:101D580004E5E0604A8E828F83A3A3A3A3E08518DD
:101D680082851983F0A3E4F09004E3E0F87402128A
:101D780014C0E8F0A3E4F09004E3E0F89004E2E093
:101D880028F074021214C0AC82AD838518828519BC
:101D980083AA82AB83790112076C9004E3E4F0E52F
:101DA80009A2E092AF740412148A0218F10000002C
:101DB8008521878522C622C0E0C0D0E8C0E0E9C0FE
:101DC800E0EAC0E0EBC0E0ECC0E0EDC0E0EEC0E06F
:101DD800C008C009C00AC00BC082C083C0F0A2AF4F
:101DE800E433FEC2AF759B00906182E0A2E050121E
:101DF800E591A2E0500C7591FE7401652170031203
:101E08001ABDE0A2E55051E591A2E5504B7591DF6E
:101E18009003A2E064076005E0640870237401651C
:101E280021703579019003D0E0FA75F003A4CAA8AF
:101E3800F028FB74D22AFA74033BFB121C6A801840
:101E4800E0640D70139003C4E004F064287002E4A9
:101E5800F07A00E0F9120BF8906182E0A2E6400304
:101E6800021F06E591A2E64003021F067591BF9086
:101E780003A2E064057008120B26120B32800312CD
:101E88000B2C752100120B86E99003A3F079001240
:101E98000B7A12096A7A017B009003A1E0F9120E0D
:101EA8004A907803E064427055900544E014F0705D
:101EB8004DC2AF121EBE00782AD0E0F618D0E0F668
:101EC800E59F540770057509FF800375097FC4C035
:101ED800E07829E6F50808E65509F509740B78084D
:101EE800121452D0E02508F8906270E0A2E740F89A
:101EF800E8C333906272F0906270E0D2E0F09061D3
:101F080081E0A2E35009E5E9A2E3500375E9F7A3EC
:101F1800E0A2E75009E591A2E7500375917FEEA290
:101F2800E092AFD0F0D083D082D00BD00AD009D0C5
:101F380008D0E0FED0E0FDD0E0FCD0E0FBD0E0FA35
:101F4800D0E0F9D0E0F8D0D0D0E032C0E0C0D0C0C6
:101F580082C083906183E0A2E05009E5BFA2E0500F
:101F68000375BFFEE0A2E15009E5BFA2E150037589
:101F7800BFFDE0A2E25009E5BFA2E2500375BFFB36
:101F8800E0A2E35009E5BFA2E3500375BFF7E0A262
:101F9800E45009E5BFA2E4500375BFEFE0A2E550A5
:101FA80009E5BFA2E5500375BFDFE0A2E65009E5E9
:101FB800BFA2E6500375BFBFD083D0828088C0E03F
:101FC800C0D0E8C0E0E9C0E0EAC0E0EBC0E0ECC0A7
:101FD800E0EDC0E0C0F0E5A7A2E6500FE5A1A2E65B
:101FE800500953A7BF75A1BF12202BE5A7A2E55042
:101FF8000CE5A1A2E5500653A7DF75A1DFE5A7A26E
:10200800E15009E5A1A2E1500375A1FDE5A7A2E20F
:10201800500CE5A1A2E2500653A7FB75A1FBD0F036
:10202800021F3C74F81215507521019003A2E06458
:10203800067015120AC08A828B83A3A3A3A3A3A345
:10204800E0FAA3E0FB120B14A2AFE433FED2AF9088
:1020580003A8E0640170187A207B009003A1E0F9DE
:10206800120ECE7A207B009003A1E0F9120E509058
:102078006182E0D2E6F0900541E0602185C62280C9
:10208800169003A7E064017008E5C654F84405F506
:10209800C653BEFC121DB87401652160E4EEA2E0CF
:1020A80092AF7F010215FC008E238F24858228853C
:1020B8008327851882851983E0CEA3E0CF852882FF
:1020C800852783EBC9EAC8EDCBECCA75F010C3E8E5
:1020D80033C8E933C9EA33CAEB33CBC3EA9EF526E2
:1020E800EB9FF525B35004AB25AA26EC33CCED3392
:1020F800CDD5F0DAAE23AF242274ED1215508A083C
:102108008B098C0A8D0B74131214C0780C12132CC3
:102118007808790C12119B7510017511C875120099
:1021280075130050127808790C1212CB78107908C0
:1021380012119B50168010780C79081212CB781067
:10214800790C12119B40047901800279007F0C02FE
:1021580015FC74ED1215508A088B098C0A8D0B74C6
:10216800131214C0780C12132C780C790812119BD6
:1021780040117808790C1212CBAA08AB09AC0AAD49
:102188000B80227510007511007512007513017807
:1021980010790C1212CB78107908121292AA10AB8F
:1021A80011AC12AD1380A68A828B837508FF75095E
:1021B800FF750AFF750B0078081213197F040215C2
:1021C800FC74F51215508C828D83780812132C8AB2
:1021D800828B8378081212DFEA2404F8EB3400F9C2
:1021E8008C828D83A3A3A3A3E0FCA3E0FD8882894E
:1021F80083C3E09CF0A3E09DF088828983C3E094C8
:1022080020A3E0944E40268A828B837508FF7509C7
:10221800FF750AFF750BFF78081212B88A828B8344
:10222800A3A3A3A3E02420F0A3E0344EF00221AF3F
:1022380074F5121550E9FE9004F7E0FAA3E0FBEEFE
:10224800C333F8E433F9748128F582748039F5834F
:10225800E02AF508A3E03BF50978081216F77A405A
:102268007B427C0F7D001220B0740212148A8A0807
:102278008B098C0A8D0B7410780812125AAA08ABB5
:10228800097F040215FC74F11215508A0C8B0D8C11
:102298000E8D0F740F1214C0E0FAA3E0FB74111234
:1022A80014C0E0F508A3E0F50978081216F7EA2447
:1022B80001F508EB3400F509E4F50AF50B780C791B
:1022C800081211DA750871750902780C790812116B
:1022D800DAAA0CAB0DAC0EAD0F1220B074021214BA
:1022E8008A8B09EA450960047A0180027A00EC2A9F
:1022F800FCED3400FD74131214C0E0F8A3E0F9E813
:10230800FEE9FFECF8EDF97A717B021213E988080F
:1023180089098E828F83780812133BECF8EDF97ADD
:10232800717B021213E98A088B0974057808121464
:10233800618E828F83A3A3A3A3E508F0A3E509F028
:102348007F080215FCC082C083E9906000F0D0834A
:10235800D08222C2AF02000022C0E074F212163C02
:10236800A2AFE433FED2AFC2C0E5D1A2E450065317
:10237800D1EF121078EEA2E092AF7F0102169BC057
:10238800E074F212163CA2AFE433FED2AFE589A2A4
:10239800E1500312102A758900C2C5EEA2E092AF7F
:1023A8007F0102169BC0E074F212163CA2AFE43320
:1023B800FED2AFE58BA2E0500312102A758B00C243
:1023C800E880D8C0E0C0D0E8C0E0E9C0E0E5A8D225
:1023D800AFC2C7A2E7A2E792AFD0E0F9D0E0F8D049
:1023E800D0D0E032C0E0C0D0E8C0E0E9C0E0C0082A
:1023F800C009C082C083A2AFE433F9D2AF900A59B2
:10240800E0F8A3E0687008539AFBA374018025C222
:10241800E9900A59E0F50874012508F074D92508EF
:10242800F582E43409F583E0F5C1900A59E0C394D4
:10243800804002E4F0E9A2E092AFD083D082D009D4
:10244800D008D0E0F9D0E0F8D0D0D0E03202011FB7
:10245800FFFFFFFFFFFFFFFFC082C083E9900BF97A
:10246800F002268A74F71214E4E99002E1F07C196C
:102478007D037AFF7BFF1206BE9002E274FFF0A391
:10248800F0A3E4F0A3F0790512064C9002E1E0F91C
:102498001205747AD67B0612087A7F010215B67483
:1024A800F41214E48A088B09EB548060309002E13E
:1024B800E0F9120E328A0A8B0BAE0AAF0BEE4F60B0
:1024C800138E828F83E064B0700312065EEEFAEF1B
:1024D800FB120E20AA08E5096480FB80047A007BC1
:1024E8000002265974F21214E474FC121474EAFE01
:1024F800EBFFEE4F603874021214C0EEF0A3EF1237
:1025080028BEECF0A3ED1228BEAA82AB8312056E9A
:10251800E9F508707374121214C0123472E50A4592
:102528000B60658E828F8312259AEE4F70057508B1
:102538000280557A067B00120E8C8A0C8B0DA80C33
:10254800A90DE8497005750813803D88828983E4E0
:102558001225A4A3A3EEF0A3EF12390BE50AF0A30A
:10256800E50BF09002E712262C9002E76017E0FCDA
:10257800A3E08003EAFCEBFD8C828D8312262C708D
:10258800F38C828D83123397A908740412148A027B
:102598003B0DA3A3A3A3E0FEA3E0FF22F0A3F088D2
:1025A8008289832274F21214E4890AE975F017A467
:1025B800FEAFF09002E6E4F09002E412262C600AE6
:1025C800120E929002E4E4F0A3F0EEFAEFFB120E82
:1025D8008C8A088B09EA4509602FEEFCEFFD79002B
:1025E800120E0E9002E4E508F0A3E509F07B0080E6
:1025F80008122616E4F0A3F00BEBC3950A40F2E5A7
:102608000A9002E6F0790080027913023B0DEB751F
:10261800F017A4F8A9F09002E4E028FAA3E0398AB8
:1026280082F5832212312DEA4B2274F41214E479D4
:1026380000EAA2E0501B7508EE75098078081216AA
:10264800F77C047D007AFB7B0B1206467402121499
:102658008A7F040215B6C082C0839002E7122691D1
:10266800601C88828983A3A3E06A7003A3E06B8857
:1026780082898370E8A3A3A3A312312980047A0076
:102688007B00D083D08202011F123BE0E84922740C
:10269800EE1214E474FC121474EAFEEBFF8518823F
:1026A800851983E4F0A3F0EE240212337BEE2405AF
:1026B8001228ACEE2404F50EEF122C91E024FE60F3
:1026C8003924FC604624FE605224FE605E24FE70BD
:1026D800030227B124FE700302282924FE70030296
:1026E800283824FE700302284724FC700302285669
:1026F80024FE70030228650228A29003007417F0D4
:10270800A3E41228C61202F20228A28518828519AB
:1027180083AC82AD831206640228728518828519FB
:1027280083AC82AD8312066A022872850C08850D77
:102738000974021214C0AC82AD83850882850983AE
:102748001231291205928A0C8B0DAC0CAD0DEC4D93
:102758006042E4F50CF50D780C1216F7750C00754F
:102768000D03780C1216F7750C01750D03780C1211
:1027780016F774081214C012170E791612312312A4
:1027880006A6740812148AE9F50C700B12311F1290
:10279800030A800F750C018508828509831228B405
:1027A800123397850C0802287574021214C0AC8283
:1027B800AD83850C82850D831231291205928A100A
:1027C8008B11AC10AD11EC4D6043850C82850D83E7
:1027D800A3A312170E75100075110378101216F7BF
:1027E80075100175110378101216F774081214C0C9
:1027F80012170E79161231231206A6740812148ABB
:10280800E9F509700B12311F120310800F750901C9
:10281800850C82850D831228B412339785090880A8
:102828004C851882851983AC82AD83120670803A74
:10283800851882851983AC82AD83120676802B8534
:102848001882851983AC82AD8312067C801C85189A
:1028580082851983AC82AD83120682800D85188229
:10286800851983AC82AD83120688E9F508E508600E
:10287800298E828F83A3E06414601F850E82850FE2
:1028880083E09003001228BE123BDC900301123350
:1028980097E508A31228C61202ECEEFAEFFB12061F
:1028A8000A023283F50CEF3400F50D22123BE08565
:1028B800188285198322F085188285198322F07C75
:1028C800007D03850A82850B8312312D2274EE1256
:1028D80014E474FC1214748A0A8B0B8C0E8D0FEAA4
:1028E8002405F508EB3400F5097C157D0079007A9C
:1028F800007B03120E0EE5082402F50CE5091228E8
:10290800AF85188285198385821085831178101206
:1029180016F7850882850983A3A3A3A3122DD912CC
:1029280016F7E5082405F510E5093400F5117810C7
:102938001216F7850C82850D8312313312058C74BB
:102948000612148A8A108B11AE10AF11E50A240200
:10295800F50AE50B12337EEE4F7003022A9B8017AF
:1029680074021214C012312988828983EAF0A3EB19
:10297800F0900300E004F0900300E0C394054003E6
:10298800022A9BE4F510F51178101216F77510E974
:1029980075110278101216F77510EA751102781081
:1029A8001216F774061214C012170E7910EEFCEF07
:1029B800FD1231231206A6740812148AE9705E8586
:1029C8000882850983A3A3A3A3A3A3A3E0F8900285
:1029D800E9E0687048122DD91216F77CEA7D02E505
:1029E800082408FAE5093400FB120E0874021214D0
:1029F8008AE960298E828F83A3A3A3A31231299029
:102A08000300E0F5107402781012146174012510A7
:102A1800F58274033511F583EAF0A3EBF074021222
:102A280014C085821085831178101216F77402126B
:102A380014C012170E850C82850D83123BF1120506
:102A480098740412148A8A108B11AE10AF11900377
:102A580000E0F5107511007402781012146174000A
:102A68002510F874033511F988828983A312262C5E
:102A7800700302295FE82403F8E93400F9EE4F6097
:102A8800030229688882898374FFF0A3F090030009
:102A9800E004F0900300E0600A12311F1202FE7990
:102AA80000800B85088285098312338E790A0232E9
:102AB8008374EA1214E474FE1214748C128D13EAEF
:102AC8002405F50CEB123BFB12259E7508007509D1
:102AD80000EA2402F510EB3400F5118518828519F7
:102AE8008385820A85830B780A1216F7850C8285FE
:102AF8000D83A3A3A3A3122C9B1216F7E50C2405A0
:102B0800F50AE50D12337E780A1216F7850C8285D0
:102B18000D83123BEF12058C740612148A8A0A8BF5
:102B28000BEA450B7003022C4CEA2404F50EEB1259
:102B38002C9112259E8A828B83A3A3A3E0F985108A
:102B48008285118312312912057AE9F50960030299
:102B58002C4CE4F514F51578141216F77514E9756C
:102B6800150278141216F77514EA751502781412FE
:102B780016F774061214C012170E7913AC0AAD0BAF
:102B88008510828511831231291206A67408121441
:102B98008AE9F5096003022C4C9002E9E0F8E5089F
:102BA8007009E02402900301F08017900301E0FC13
:102BB800E82402FAE43400FBEA6C7001EB600302DB
:102BC8002C50850882AA82122DD09414122DC85038
:102BD80073850E82850F83E0C0E074022A122C8868
:102BE800D0E0F00508850E82850F83A3E0C0E0855C
:102BF800080A7402250A122C88D0E0F00508900211
:102C0800E9122C9B1216F77CEA7D0285080A7402E9
:102C1800250AFA74033400FB120DF6740212148AA2
:102C28009002E9E02508F50874FF6E700374FF6FE1
:102C38006012EE24010EEF3400FFE508C39414502F
:102C480003022AE3E5086013123014851082851107
:102C58008312312912030479008014E50970037581
:102C6800090A851282851383EEF0A3EFF0A909748F
:102C78000212148A7F0E0215B685080C7402250C00
:102C8800F58274033400F583223400F50F850E8233
:102C9800F5832212391E2274EE1214E474FE121403
:102CA800748C0E8D0FEA2405F50CEB1228AF750B0A
:102CB80000900300E4F0F50AEA2402F508EB34007A
:102CC800F5098049900300E0FA9002E9E0F8122D36
:102CD800D09417122DC8400D900300E0F87416C365
:102CE800989002E9F0122DD91216F77CEA7D027449
:102CF800012AFA74033400FB120DF6740212148AC6
:102D08009002E9E0F8900300E028F0050AE50C24B9
:102D180016F582E50D122C8CE0F8E50AC3984003FD
:102D2800022DB1900300E0C39416507DE50AC33329
:102D3800F8E433F9E50C28FEE50D39FF851882859E
:102D48001983AC82AD838E828F831231291205924A
:102D58008A108B11AC10AD11EC4D7005750B01800C
:102D680043E4F510F51178101216F77510E975118E
:102D78000278101216F77510EA75110278101216FB
:102D8800F774061214C012170E7916850882850981
:102D9800831231291206A6740812148AE9F50B70F9
:102DA80003022CCC12338A80107C007D03850882B4
:102DB800850983123129120316A90B740202328580
:102DC800E99400C365D03322EA28F8E43400F9E82E
:102DD80022E0F51075110078102274EA1214E474D8
:102DE800FC1214748A0C8B0D8C128D13EA2405F5D1
:102DF8000AEB12337E750800750900E50A2402F50E
:102E080010E50B3400F51174021214C085820E858A
:102E1800830F780E1216F7850A82850B83A3A3A366
:102E2800A31238CA1216F7E50A2405F50EE50B3485
:102E380000F50F780E1216F785108285118312336C
:102E48008412312312058C740612148A8A0E8B0F91
:102E5800AE0EAF0FE50C2402F50EE50D3400F50FAC
:102E680080408882898374FFF00508122C8174FFE2
:102E7800F005089002E9E0F50C750D00780C1216C3
:102E8800F77CEA7D0285080C7402250CFA74033479
:102E980000FB120DF6740212148A9002E9E025086C
:102EA800F508EE4F60718E828F83A3A3A3E0F985A6
:102EB8000E82850F8312312912057AE9F509EE246D
:102EC800041228ACE97044E4F514F51578141216C8
:102ED800F77514E975150278141216F77514EA7562
:102EE800150278141216F774081214C012170E7906
:102EF80011EEFCEFFD850E82850F83123129120633
:102F0800A6740812148AE9F5096027850C82850DD4
:102F18008312300A123397E5087003022FF012303B
:102F280014850E82850F8312312912031C79000241
:102F38003005850882AA82EA9002E97009E0240433
:102F4800900301F08022E0F8900301E0F514E824F2
:102F580004FCE43400FDEC65147001ED70C0122D22
:102F6800D09412122DC850B6850C82850D83E0C00E
:102F7800E074022A122C88D0E0F00508850C8285BE
:102F88000D83A3E0C0E0122C81D0E01230268582A8
:102F98000C85830D780C1216F774041214C01217DE
:102FA8000E851082851183123BF112059874041264
:102FB800148A8A0C8B0DAE0CAF0D85080C74022593
:102FC8000CF874033400F9EE4F7003022E6A85186A
:102FD80082851983E088828983123026A3E0C0E0C5
:102FE800122C81D0E0022E78E509700375090A8554
:102FF8000A82850B8312300A123397A909740402D6
:103008002C79123BE085128285138322900301E01C
:10301800F5F0E50884900300F07C007D0322F005BC
:10302800088518828519832274EC1214E474FE1240
:1030380014748A088B098C0E8D0FEA2405FEEB3474
:1030480000FF851882851983AC82AD838E828F83B9
:103058001231291205928A0A8B0BEE24181228AC19
:10306800EA450B70030230FA12326C50328518822E
:1030780085198312312912069A8A108B11EA451193
:10308800606B7912AC0AAD0B850882850983123111
:10309800298510828511831214E2E9F50A7058E433
:1030A800F50AF50B780A1216F78E828F83A3A3E030
:1030B800F50A780A1216F7EE240312337B780A12FF
:1030C80016F78E828F831231331206AC74061214EF
:1030D8008AE9F50A7021850C82850D83E0701F85C9
:1030E80008828509831231291203228011750A0E7C
:1030F8008009750A018004E50A600312338A850C89
:1031080082850D83E0600479008002A90A740212A6
:10311800148A7F0C0215B67C007D03850A82850B14
:103128008312312D22E0FAA3E0FB22E0FCA3E0FDAC
:1031380085088285098312312D2274EE1214E474F5
:10314800FE1214748A088B098C0C8D0DEA2405FE76
:10315800EB3400FF750E00851882851983AC82ADAB
:10316800838E828F831231291205928A0A8B0BEA89
:10317800450B700302325812326C5035851882851F
:10318800198312312912069A8A0E8B0FEA450F60AD
:103198005E7912AC0AAD0B85088285098312312944
:1031A800850E82850F831214E2E9F50E6003023260
:1031B8005B850882850983123472AA0AFB12068E7F
:1031C8008A108B11A810A911E849701E7AFF7BFF9D
:1031D80012068E8A108B11A810A911E849606C8814
:1031E800828983E50AF0A3E50BF0750A008007756C
:1031F8000E0E805F050A9002E6E0FAE50AC39A50CF
:103208004AE50A75F017A4FAABF088828983A3A36C
:10321800E02AFAA3E03BFB8A828B83123384EC4DCD
:1032280070D2750A17750B00780A1216F7EEFCEFC4
:10323800FD120DF6740212148AEEFCEFFD85088269
:103248008509831231291203288014750E09800319
:10325800750E01123BD8850C82850D83123397A910
:103268000E022DC3E5082402F508E5093400F50926
:103278008A828B83A3A3A3E0A2E522740412148A92
:103288007F0A0215B674EC1214E48C108D11EA242E
:1032980005F50CEB1228AF750F00EA2402F50AEBCE
:1032A80012337E850A82F58312312912068E8A0826
:1032B8008B09EA45097003023370750E0080718529
:1032C8000C82850D83E06401704F8E828F83A3A3E7
:1032D80012170E8E828F83A3A3A3A3E0F512751392
:1032E8000078121216F7EE2405F512EF3400F513E4
:1032F80078121216F71231231206AC740612148AC9
:10330800E9F50F6014850C82850D83E4F0123BD833
:103318008510828511831233977C177D007900EE22
:10332800FAEFFB120E0E8E828F83E4F0A3F0050EE7
:103338009002E6E0F8E50EC398501EE50E75F0170A
:10334800A4F8A9F0850882850983A3A3123C051275
:103358003384EC4D60030232C78508828509837483
:10336800FFF0A3F0E50F700612312312032EA90F08
:1033780002311AF50AEF3400F50B22A3E0FCA3E0B2
:10338800FD228E828F83123BE0850E82850F83E8B3
:10339800F0A3E9F022C082C0839002E2E06A7003E1
:1033A800A3E06B70067AE27B0280047A007B00025D
:1033B800268AC082C08378008C828D83E06A70037D
:1033C800A3E06B7010E875F003A4F8A9F0EC28FAF4
:1033D800ED39FB8015088C828D83A3A3A3E06A7066
:1033E80003A3E06B60DF7A007B0002268A74F61282
:1033F80014E41206588A828B83E582458370067A24
:10340800007B008007A3A3A3A3123129023A897481
:10341800F21214E4E9FE740E1214C012347274101D
:103428001214C01238EA8C828D83E064027036A3CD
:10343800123BE6F50CA3E0F9A80C7402687003745B
:1034480029697021750C02750D00780C1216F77831
:10345800081216F7780A1216F7EEF91206D0740653
:1034680012148A80027901023B0DE0F50AA3E0F507
:103478000B2274E81214E474FB121474E9851882A0
:10348800851983F08A168B17ECFEEDFF7510007412
:103498001D1214C0123BDC741D1214C01233978E17
:1034A800828F83A3A3A3E0A2E4502D741D1214C03D
:1034B80012312912069A8A828B83E582458370032A
:1034C8000238BB790AEEFCEFFDAA16AB171214E21C
:1034D800E9F51060030238BE741F1214C01238EAEE
:1034E80074211214C012347274231214C0E0F50E41
:1034F800A3E0F50F8E828F83E064026003023869CF
:10350800A3123BDC850882850983A3858212858303
:1035180013EE24061228AC88828983E0FAA3E0F926
:10352800EA2400F514E439F515781412178101001E
:10353800002801285E350700022823360328903525
:1035480000295A37012985370229263703295A378E
:10355800042904386938E50E450F6003023864858C
:103568000C82850D831238DFFAE9FB8A828B83E0AF
:10357800850A82850B831239151216F78A828B8386
:10358800A3E0FCA3E00237EEE50E450F6003023826
:1035980064850A82850B837401F01238F2850882EB
:1035A800850983F07C007D008E828F83A3A3A3A36B
:1035B800E02401FAA3E03400FB120592EA4B6041D3
:1035C8008A828B83E02402F8850A82850B83E028AF
:1035D800F0EA2404F8EB3400F988828983E0851244
:1035E800828513831239271239151216F78A828BAE
:1035F80083123383E5082403FAE5093400FB023714
:10360800F3850A82850B83E02404F07C047D00792D
:1036180000AA12AB13120E0E0238BEE50E450F605B
:10362800030238641238F2FEA3E0FF850A82850B94
:10363800837404F0EE850882850983F0EF85128291
:10364800851383F074031214C0AC82AD83EEFAEFD5
:10365800FB1205928A0C8B0DEA450D7003023707A1
:103668008A828B83A3A312259A74011214C08582BF
:103678000E85830F780E1216F774051214C01217F0
:103688000E7CFF7DFF120598740412148A8B0FEAD2
:10369800450F7033850C82850D831238CA1216F7D0
:1036A800850C82850D83A312170E7C027D007A4259
:1036B8007B811203C4740412148AE9700A7401121B
:1036C80014C074FFF0A3F08E828F83E06402703917
:1036D800750C02750D00780C1216F78E828F831206
:1036E8003383E5082404FAE5093400FB120DF67467
:1036F8000212148A850A82850B83E02402800974E9
:10370800011214C0EEF0A3EFF074011214C01238C5
:10371800DBF074011214C0A31238D302385EE50E30
:10372800450F6003023864850C82850D831233844B
:10373800AA16AB171206C4850A82850B837402F099
:10374800EA850882850983F0851282851383EB0256
:103758003861E50E450F60030238641238F2F8A3A9
:10376800E0F9850A82850B837402F0E88508828572
:103778000983F0E9851282851383023861850C82FA
:10378800850D83123129120DF0EAFC8C82A882C3C0
:10379800950EE4950F405FE8650E7002E50F700422
:1037A8007C008022851882851983E0FAE50E2AFAC2
:1037B800E50F3400FBC3EA98EB94005003E0800562
:1037C800E50ECCC39CFCEC850A82850B83F08C0A41
:1037D800750B00780A1216F7850C82850D83E02593
:1037E8000EFCA3E0350FFDAA08AB09120DF6740212
:1037F80012148A0238BE7510070238BEE50E450F4E
:10380800705A850C82850D83123BDC850A82850BF4
:103818008374071225A61238D31225A6A3E08512B1
:1038280082851383F0E82402FAE93400FB8A828B4C
:10383800831238D31239021238DBA312390B12382B
:10384800E4F0E82405F8E93400F98882898312381D
:10385800E4A3123927A3A3A3A3F0805A75100B8001
:1038680055741D1214C01231291206588A828B838E
:10387800E5824583603D123BDC880C890DE8450DE7
:103888006031780E1216F7780A1216F778081216B1
:10389800F774061214C0E0F9EEFCEFFDAA16AB1798
:1038A800850C82850D831214E2740612148AE9F5D8
:1038B80010800375100EA910740512148A7F100267
:1038C80015B6E0F50E750F00780E22E085088285A2
:1038D80009832212393122123BE0E822123931A33E
:1038E800A322E0F508A3E0F50922850C82850D8363
:1038F800E0F8A3E0F5838882E022A3A3F08A828B14
:1039080083A322F088828983A3A3A3A322F08A82B7
:103918008B8312391E22E0F50A750B00780A22F013
:1039280088828983A312393122E085088285098338
:10393800A3A32274EE1214E474FE1214748A0A8B80
:103948000BECFAEDFB74141214C0E0F510A3E0F5CB
:103958001174161214C0E0FE74181214C0E0F50EAB
:10396800A3E0F50F851882851983AC82AD83120513
:10397800928A0C8B0DEA450D60498518828519835A
:103988001231291206588A828B83E5824583602F7B
:10399800A3A31238EAE50845096024780E1216F741
:1039A80078101216F7EEF9AC0CAD0DAA0AAB0B8520
:1039B80008828509831214E2740412148A80067935
:1039C8000E80027901022DC374F61214E474FE12FB
:1039D8001474740C1214C01238DF85188285198388
:1039E800F074011214C0E9F0E4F508F5097808123A
:1039F80016F775080278081216F774041214C085B1
:103A0800820885830978081216F71206AC74061224
:103A1800148A740212148A806874F71214E4EAFE95
:103A2800EBFF89087C197D031206C4EA5402600B77
:103A3800A908EEFAEFFB120586800279010224A29A
:103A480074F61214E474FF6A700374FF6B70168CBA
:103A5800828D83123A8EE4F08C828D83A3A3A31205
:103A68003A8EA380181206948A088B09A808A90917
:103A7800E849600D8882898374FF1225A4A3A3E412
:103A8800F07F020215B674FFF0A3F08C828D83A339
:103A9800A32274F61214E41206948A828B83E582B8
:103AA80045836006A3A3E0FA80027A007B0080D1F8
:103AB80074F21214E48A088B09ECFEEDFF740E12FE
:103AC80014C0E0F50A1206948A0C8B0DA80CA90DF7
:103AD800E8497026EEFCEFFD7AFF7BFF1206948A18
:103AE8000C8B0DA80CA90DE8497004791180168873
:103AF800828983E508F0A3E509F088828983A3A376
:103B0800E50AF079007F060215B674EE1214E4EAAD
:103B1800FEEBFF8C088D09890C74141214C0123B3B
:103B2800DC74161214C0123129750D00E8496003BF
:103B3800023BD07402650C6003023BCB7412121472
:103B4800C0123BE6FCA3E0F9EC2400F50EE439F5DD
:103B58000FEAF4F8EBF4F9EC58F8E50F59F9E849ED
:103B6800705CE5082406F8ED3400F9880A890B88AA
:103B780082F583123BF11206C48A108B11E50E659B
:103B8800107004E50F65116042780E1216F7850A69
:103B980082850B83123BF11206CA740212148AE959
:103BA800F50D7027780E1216F7850882850983A30C
:103BB800A3123BEF1206DC740212148A800D750DF5
:103BC800808008750D0D8003750D0BA90D023288D4
:103BD8008E828F83123BE022E0F8A3E0F922123BA9
:103BE800E088828983E022A3A3E0FCA3E0FDEEFA4B
:103BF800EFFB223400F50D850C82F58322E028FEC8
:103C0800A3E039FF8E828F832274F21214E4EAFE55
:103C1800EBFF890B7401650B600E7402650B706A0B
:103C28007901120898E97062EEFAEFFB12068E8AA3
:103C3800088B09EA45096047750A00800B7C177DE7
:103C4800007900120E0E050A9002E6E0F8E50AC3B4
:103C5800985021E50A75F017A4F8A9F0850882851F
:103C68000983A3A3E028FAA3E039FB8A828B831295
:103C7800269170C985088285098374FFF0A3F07CBA
:103C8800197D03EEFAEFFB1206BE023B0D74F21229
:103C980014E48A088B09ECFEEDFF740E1214C012AE
:103CA8003472900BF9E0F4603D7A097B00120E1A29
:103CB800EA4B60328A828B8374B1F0A3E412390430
:103CC800A3123902A3E508F0A3E509123CF1EEF0CE
:103CD800A3EF123CF1A3A3E50AF0A3E50BF0900BC8
:103CE800F9E0F9120E26023B0DF08A828B83A3A31A
:103CF800A3A3A322C082C0839061907404F0A3742C
:103D080048F0A37402F09061807440F09061BC7434
:103D180003F09061877419F0906265741BF09062EB
:103D280049E0C3941390619C400A7409F09060665E
:103D380074018007740DF0906066E4F090619A74E5
:103D480033F0A37455F09061A0743AF090053FE009
:103D580064017009C2919003A6746780059003A658
:103D68007461F090245EE493906186F0902458E4A6
:103D780093F46027E493540FF8906185E06860122B
:103D8800E5C654804449F5C6E59E547F644970F8F9
:103D9800E8F053C680E59E547F70FA7905120BDA75
:103DA800023F2AC082C083E5A8F853A87E906181AB
:103DB800E4F0A3F0A3F0C2BA539AFEC289759B003F
:103DC800C2C275E90075910075BF0075A91175B972
:103DD80005906181F0A374C0F0A3E4F0D2BA439ACD
:103DE8000174805842A8023F2AC082C08374F81226
:103DF80014749003A4E0F8A3E0F9E8497003023FC3
:103E08001F9003A4E054406023790885188285191F
:103E180083AA82AB83120A4E851882851983AA82E7
:103E2800AB831207489003A4E054BFF0E0548060CD
:103E380010790C7A657B05120A4E9003A4E0547F32
:103E4800F0E0A2E0503190619A7433F0A37455F019
:103E58009061A0743AF090053FE064017009C29146
:103E68009003A6746780059003A67461F012074E4C
:103E78009003A4E054FEF0E05402603190619A741B
:103E88003FF0A3745AF09061A0747FF090053FE072
:103E980064017009D2919003A6747180059003A6FD
:103EA800746AF012074E9003A4E054FDF0E0540445
:103EB800601390245CE493906186F0120754900399
:103EC800A4E054FBF0E05408601390245DE4939060
:103ED8006186F01207549003A4E054F7F0E0541000
:103EE800601390245EE493906186F0120754900367
:103EF800A4E054EFF0E05420600A1207549003A4A1
:103F0800E054DFF0A3E05401600D12097612075A5D
:103F18009003A5E054FEF0740812148A023F2AF0B8
:103F2800A3F0D083D08202011F74EC1214E474F45D
:103F3800121474851882851983AC82AD83758381C8
:103F4800758222740412138790245C93F460030230
:103F580040BD907808E0C39402500302409D740469
:103F68001214C0AC82AD837583807582D174081237
:103F780013878518828519838582128583137404B3
:103F88001214C0AC82AD83750EFF750FFF7FFF7EE4
:103F980000750C48750D78801574086E7003024022
:103FA8003174096E7003024031740A6E607B850CAF
:103FB80082850D83780812132C8C828D83A909E5DC
:103FC8000AC9F888107418780812125AE5104508BA
:103FD800F8C3E098A3E099850C82850D83780812D0
:103FE800132C40188C828D837418780812125AE5A5
:103FF800104508F8E0C398F8A3E0801C7418780806
:1040080012125AE5104508FAE9FB8C828D83E0F814
:10401800A3E0F9EAC398F8EB99F9C3E8950EE99596
:104028000F5006880E890FEEFF0EE50C2404F50CE0
:10403800E50D3400F50DEEC394135003023FA1744F
:10404800FF650E700474FF650F60238F0874027893
:104058000812146174482508F58274783509F583C7
:10406800780812132C851282851383E508F0EC2456
:1040780002FCED3400FD851282851383A38582122C
:10408800858313740C1214C0E5826C7003E5836D8C
:104098006003023F8F75080175090078081216F74A
:1040A80074021214C0AC82AD837A177B0912100611
:1040B800740212148A740C12148A7F0C0215B6C08A
:1040C80082C0839061AE7468F0A3746AF090624510
:1040D80074FBF0A304F053F4FD43FE0290053F7413
:1040E80001F09061A0E0643A90619A70237433F013
:1040F800A37455F09061A0743AF0740164017009DA
:10410800C2919003A6746780289003A674618021E9
:10411800743FF0A3745AF09061A0747FF074016446
:10412800017009D2919003A6747180059003A6745A
:104138006A023F297F080215B6C082C0839004F145
:10414800E06401700A9004F6E06004790C8002795A
:1041580000023F2AC082C08375E1F19004F4E06058
:104168005B14600914605F14605714705E1209884C
:104178009004EAE0F97AEB7B04120B5C7AD67BBEFA
:104188007C897D8E120B927A557B557C557D001269
:104198000B689004F5E0F9120B747901120BCE90BC
:1041A80004E8E0F8A3E0C82416F582E83400F583B3
:1041B80074A0F0A37409F07900023F2A12098E80D6
:1041C800AF12099480AA12099A80A5791280EA741C
:1041D800F01214E475D90D9004D5E0A2E0E433138D
:1041E80013F89004EAE0C4333354C0484401F5D9C5
:1041F80078E8790488828983A3A3A3E0F5D9888223
:104208008983A3A882A983E864EE7003E964047033
:10421800E378D5790488828983A3E0F5D9888289EF
:1042280083A3A882A983E864DB7003E9640470E5CA
:1042380075E1959004D5E0F97AD67B04120B62906B
:104248000C1B743AF0A37409F0A37496F0A3740AD3
:10425800F0A37496F0A3740AF0A37496F0A3740AFA
:10426800F0A37440F0A37409F0A37496F0A3740A41
:10427800F0A37458F0A37409F0900C297496F0A375
:10428800740AF0A37496F0A3740AF0A37496F0A3CA
:10429800740AF0A37496F0A3740AF0A37496F0A3BA
:1042A800740AF0A37496F0A3740AF09004F4E0641E
:1042B800019004E87012E0F8A3E0F5838882A3A3D4
:1042C8007508007509088010E0F8A3E0F583888276
:1042D800A3A3750804750900750A00750B00780812
:1042E8001212A5750CFF750DFF750EFF750F00787E
:1042F80008790C1212F39004E8E0F8A3E0C8240E41
:10430800F582E83400F583780812133B9004E8E05E
:10431800F8A3E0C82414F582E83400F5837413F098
:104328009003A27402F002413C74F71214E4900462
:10433800FAE02407F5D99004EAE0C4333354C0F511
:10434800D978E8790488828983A3A3A3E0F5D9887A
:10435800828983A3A882A983E864EE7003E96404D0
:1043680070E39004FAE0601F78E87904FAE824130F
:10437800F582E93400F583E0F5D988828983A3A81A
:1043880082A9831AEA70E690051AE02407F5D99005
:1043980004EAE0C4333354C04404F5D978E8790416
:1043A80088828983A3A3A3E0F5D988828983A3A8F7
:1043B80082A983E864EE7003E9640470E390051A47
:1043C800E0601F78E87904FAE82433F582E93400DC
:1043D800F583E0F5D988828983A3A882A9831AEA9C
:1043E80070E675E195900C1B7446F0A37409F0A370
:1043F8007496F0A3740AF0A37496F0A3740AF0A359
:104408007496F0A3740AF0A37440F0A37409F0A39F
:104418007496F0A3740AF0A37458F0A37409F0908A
:104428000C297496F0A3740AF0A37496F0A3740A86
:10443800F0A37496F0A3740AF0A37496F0A3740A18
:10444800F0A37496F0A3740AF0A37496F0A3740A08
:10445800F09004E8E0F8A3E0C8240EF582E8340000
:10446800F58374FFF0A3F0A3F0A3F09004E8E0F85C
:10447800A3E0C82414F582E83400F5837412F090A0
:1044880003A27401F0FF0215B674F71214E4900445
:10449800FAE02407F5D99004EAE0C4333354C04461
:1044A80002F5D978E8790488828983A3A3A3E0F583
:1044B800D988828983A3A882A983E864EE7003E976
:1044C800640470E39004FAE0601F78E87904FAE87D
:1044D8002413F582E93400F583E0F5D988828983CD
:1044E800A3A882A9831AEA70E675E195900C1B745B
:1044F80052F0A37409F0A37452F0A37409F0A374E2
:1045080052F0A37409F0A37452F0A37409F0A374D1
:1045180052F0A37409F0A37452F0A37409F0A374C1
:1045280058F0A37409F0900C297496F0A3740AF05B
:10453800A37496F0A3740AF0A37496F0A3740AF017
:10454800A37496F0A3740AF0A37496F0A3740AF007
:10455800A37496F0A3740AF09004E8E0F8A3E0C806
:10456800240EF582E83400F58374FFF0A3F0A3F07D
:10457800A3F09004E8E0F8A3E0C82414F582E83436
:1045880000F5837414F09003A27404F00248587480
:10459800F71214E49004FAE02407F5D99004EAE04D
:1045A800C4333354C04406F5D978E879048882893D
:1045B80083A3A3A3E0F5D988828983A3A882A983CA
:1045C800E864EE7003E9640470E39004FAE0601FA5
:1045D80078E87904FAE82413F582E93400F583E0F1
:1045E800F5D988828983A3A882A9831AEA70E690FC
:1045F800051AE02407F5D99004EAE0C4333354C01F
:104608004404F5D978E8790488828983A3A3A3E0D0
:10461800F5D988828983A3A882A983E864EE700308
:10462800E9640470E390051AE0601F78E87904FAF9
:10463800E82433F582E93400F583E0F5D9888289E6
:1046480083A3A882A9831AEA70E675E195900C1BEA
:10465800744CF0A37409F0A37496F0A3740AF0A341
:104668007496F0A3740AF0A37496F0A3740AF0A3E6
:104678007496F0A3740AF0A37496F0A3740AF0A3D6
:104688007458F0A37409F0900C297496F0A3740A76
:10469800F0A37496F0A3740AF0A37496F0A3740AB6
:1046A800F0A37496F0A3740AF0A37496F0A3740AA6
:1046B800F0A37496F0A3740AF09004E8E0F8A3E07D
:1046C800C8240EF582E83400F58374FFF0A3F0A344
:1046D800F0A3F09004E8E0F8A3E0C82414F582E819
:1046E8003400F5837415F09003A27403F00248585F
:1046F800C082C0839004E8E0F8A3E0C82406F582ED
:10470800E83400F583E4023F2774F71214E49003B9
:10471800D0E0F875F003A4C8AAF02AF974D228F8F2
:10472800740339F9E82405FAE93400FB8A828B839B
:10473800E0FCA3E0FD88828983A3A3A3A3A3A3A38A
:10474800A3A3ECF0A3EDF088828983A3A3A3A3A37A
:10475800A3A3E024FFF8A3E034FFF98A828B83E85F
:10476800F0A3E9F002485874F71214E4EAFEEBFFEC
:104778009061D0E0600302484C75D90E75D9037575
:10478800D904EE248BF582EF3400F583E582240802
:10479800F8E5833400F9E0F5D9A3E865827003E908
:1047A800658370F2EE2483F582EF3400F583E582A9
:1047B8002404F8E5833400F9E0F5D9A3E8658270AC
:1047C80003E9658370F275E1957908EE248BFAEFB9
:1047D8003400FB120A427904EE2483FAEF3400FB1A
:1047E800120A427C00EEF8EFF9ECFAC3E49AFA9563
:1047F800E0FBEE2AFAEF3BFBEA248AF582EB340071
:10480800F583E0C0E0E824AAF582E93400F583D016
:10481800E0F00C88828983A3A882A983ECC394085A
:1048280040C7EE246FF582EF3400F583E0F8A3E08B
:10483800F9EE2471F582EF3400F583E8F0A3E9F08E
:104848007901800279008008F0EEA2E092AF790049
:104858007F010215B6C082C08375D90275D9037568
:10486800D90575E195EA246FF582EB3400F583E00C
:10487800F8A3E0F9EA2471F582EB3400F583E8F057
:10488800A3E9F07901023F2A74F61214E4EAFEEB78
:10489800FF9005457406F0750845750905780812F6
:1048A80016F77C017903120A8A740212148A75D9E0
:1048B8000675D903758245758305E0F5D9A3E582A8
:1048C800644A7004E583640570F075E1959003A26D
:1048D800E06408701EEE246FF582EF3400F583E083
:1048E800F8A3E0F9EE2471F582EF3400F583E8F0DF
:1048F800A3E9F07901024B5E74F61214E4EAFEEBC8
:10490800FF9061D0E070667801900545740BF090D7
:1049180003A2E0640770197508457509057808123F
:1049280016F77C017903120A8A740212148A780530
:10493800740128F5D975D903758245758305E8FA98
:10494800E0F5D9A31AEA70F875E195EE246FF582BF
:10495800EF3400F583E0F8A3E0F9EE2471F582EF77
:104968003400F583E8F0A3E9F079018002790002C8
:104978004B5E74F71214E4EAFEEBFF75D90375D9A0
:104988000375D90DEE24DDF582EF3400F583E0F5EB
:10499800D975E1957904120B98EE246FF582EF34FE
:1049A80000F583E0F8A3E0F9EE2471F582EF340016
:1049B800F583E8F0A3E9F0790102485874F6121477
:1049C800E4EAFEEBFF9061D0E0F87480C398FAEE59
:1049D8002482F582EF3400F583E0600478048002D5
:1049E8007800E8240BF8EAC3985003024A897D0945
:1049F800900545EDF0EE24E2F8EF3400F97A467BB5
:104A0800057C0888828983E08A828B83F088828982
:104A180083A3A882A9838A828B83A3AA82AB831CDF
:104A2800EC70E0EE2482F582EF3400F583E0601D3F
:104A380075084575090578081216F77C097903EE9B
:104A4800FAEFFB120A8A740212148A7D0D74012D82
:104A5800F5D975D9037582457583058D08E0F5D9B3
:104A6800A31508E50870F675E1957904120B98EE20
:104A7800241DF582EF3400F583E4F0A3F07901807A
:104A8800027900024B5E74F61214E4EAFEEBFF9022
:104A980061D0E0F87480C398FAEE2482F582EF348E
:104AA80000F583E06004780480027800E82408F8C0
:104AB800EAC3985003024B5C7806900545740CF0E5
:104AC8009003BFE0900546F09003C0E0900547F0E2
:104AD8009003C1E0900548F09003C2E0900549F0CA
:104AE8009003C3E090054AF0EE2482F582EF34008B
:104AF800F583E0601B75084575090578081216F7F7
:104B08007C067903EEFA120A8A740212148A780A69
:104B1800740128F5D975D903758245758305880808
:104B2800E0F5D9A31508E50870F675E19579041242
:104B38000B98EE246FF582EF3400F583E0F8A3E0DC
:104B4800F9EE2471F582EF3400F583E8F0A3E9F07B
:104B58007901800279007F020215B674F61214E416
:104B6800EAFEEBFF9061D0E0F87480C398FAEE2477
:104B780082F582EF3400F583E060047804800278DF
:104B880000E82404F8EAC3985003024C3D780290E8
:104B98000545E8F0EE24F4F582EF3400F583E09063
:104BA8000546F0EE2482F582EF3400F583E0601BC1
:104BB80075084575090578081216F77C027903EE21
:104BC800FA120A8A740212148A7806740128F5D92E
:104BD80075D9037582457583058808E0F5D9A3154D
:104BE80008E50870F675E195EE2473F582EF340058
:104BF800F583E4F0EE247FF582EF3400F583E4F0EA
:104C0800EE241DF582EF3400F583E4F0A3F0790477
:104C1800120B98EE240DF582EF3400F583E0F8A32B
:104C2800E0F9EE2471F582EF3400F583E8F0A3E9AA
:104C3800F0790180027900024B5E74F61214E49058
:104C480061D0E0F87480C398FCEA2482F582EB34E2
:104C580000F583E06004780480027800E82404F812
:104C6800ECC398405B79029005457407F0EA24F597
:104C7800F582EB3400F583E0900546F0EA2482F5EE
:104C880082EB3400F583E0601875084575090578EE
:104C9800081216F77C0209120A8A740212148A7919
:104CA80006740129F5D975D903758245758305E917
:104CB800F8E0F5D9A318E870F875E1957901800254
:104CC8007900024B5E74F51214E4E9FCA2AFE433F8
:104CD800F50AC2AF7D0080010DEA246EF582EB343F
:104CE80000F583E0F8EDC398501A8D08EA2508F816
:104CF800EB3400F9E8246AF582E93400F583E06CC6
:104D080070D68024EA246EF8EB3400F9E0FEEA2E2F
:104D1800FAEB3400FBEA246AF582EB3400F583EC05
:104D2800F088828983E004F0E50AA2E092AF7F036D
:104D38000215B674F61214E4A2AFE433FDC2AFEA6A
:104D4800246EF582EB3400F583E014F07C006036C5
:104D58008C08EA2508F8EB3400F9E8246BF582E9B9
:104D68003400F583E0C0E0E8246AF582E93400F510
:104D780083D0E0F00CEA246EF582EB3400F583E092
:104D8800F8ECC39840CAEA246DF582EB3400F58349
:104D980074FFF0EA2469F582EB3400F583E4F0ED62
:104DA800A2E092AF024B5EC082C083E5A8F8C2AF12
:104DB800EA246AF582EB3400F583E9F0EA2469F520
:104DC80082EB3400F583E4F0E8A2E7A2E792AF02B1
:104DD8003F2A74F31214E4EAFEEBFFECFAEDFB8AC7
:104DE800828B83A3A3A3A3E0541FF0EE2436F5829D
:104DF800EF3400F583E4F0F50AEEFCEFFD8A828BD0
:104E080083E0C0E0EC245DF582ED3400F583D0E06A
:104E1800F0750B00E50A33333354F8F50C8A828BAE
:104E280083E0F508750900E50B7808121442E508D7
:104E3800A2E0502FEE2436F8EF3400F988828983F7
:104E4800E0F508EE2508F508EF3400F509E5082433
:104E580038F582E5093400F583E50CF0888289830A
:104E6800E004F0050B050CE50BC3940840AF050AF8
:104E78008A828B83A3AA82AB838C828D83A3AC8224
:104E8800AD83E50AC394055003024E057F0502155C
:104E9800B674F71214E49003CEE064017003024F75
:104EA800F77A009003D4E06003024FF77401F0A38F
:104EB800E4F0A3F090043404F0900439F09003D7A0
:104EC800E4F0A3F0A3F0A3F09003E104F09004074A
:104ED800E4F09003EAF0A3F0A3F0A3F0A3F0A3F0AA
:104EE800A3F0900451F0900445F090043A7480F0D7
:104EF800A3E4F0900440F09004BCF0A3F0A3F0A366
:104F0800F0A3F0A3F0A3F0A3F09004C5F09004542C
:104F1800F09004A4F0A3F0A3F0A3F0A3F0A3F0A3EF
:104F2800F0A3F0A3F0A3F09004B0F09004B2F090D6
:104F380004AEF09004C8F0A3F0A3F0A3F0A3F0A38C
:104F4800F0A3F0A3F078CE7903E8246EF582E93473
:104F580000F58374FFF00A88828983A3A882A98355
:104F6800EAC3940440E37ACE7B0378DC7904888230
:104F78008983E0C0E0EA2461F582EB3400F583D050
:104F8800E0F088828983A3A882A9838A828B83A37D
:104F9800AA82AB83E864E17003E9640470D07ACE36
:104FA8007B0378B5790388828983A3E0C0E0EA248B
:104FB800E6F582EB3400F583D0E0F088828983A39C
:104FC800A882A9838A828B83A3AA82AB83E864BD63
:104FD8007003E9640370CF9003CEE004F0640170BD
:104FE800089003D6E09003D0F07AD27B0380047A4D
:104FF800007B00024858C082C0839003D5E4F0903B
:1050080003D4F09003CEF0A3F0A374FFF075E1F1A0
:10501800023F2AC082C083780079009003D5E060FF
:105028000478D2790388828983A3A3A3A3E0F90231
:105038003F2A74F61214E4EAFEEBFFEE2463F582CD
:10504800EF3400F583E0F8A3E0F9E8497003025073
:10505800DFEE2463F8EF3400F97A007B00A2AFE4B6
:1050680033F508C2AF88828983E0FCA3E0FDEC4DEC
:10507800603A88828983E0FAA3E0FB8A828B83E026
:10508800FCA3E0FD88828983ECF0A3EDF08A828B93
:1050980083E4F0A3F088828983E0FCA3E0FDEC4D73
:1050A800700A88828983A3A3E4F0A3F0E508A2E04C
:1050B80092AF1210969004E2E004F09004E3E0044A
:1050C800F0EE2463F582EF3400F583E0F8A3E0F90D
:1050D800E84960030250598E828F83A3A3A3E0603E
:1050E8000F8E828F83A3A3A3E4F09003CFE014F084
:1050F8009003CEE014F070069003D074FFF08E8217
:105108008F83A3A3E4F09004E1E0700D9003CFE057
:10511800640170057900120B7AEEFAEFFB120ABAF5
:10512800024B5E74F71214E4EAFEEBFF8E828F8363
:10513800A3A3A3A3E0FA7B0012079CEEFAEFFB12ED
:105148000A0C120AA2024858C082C08378B57903B3
:1051580088828983A3E4F088828983A3A882A983AB
:10516800E864BD7003E9640370E69003B674010255
:105178003F2974F61214E4EAFEEBFFEC2403F8ED81
:105188003400F988088909EC2407F8ED3400F9E8B7
:10519800FCE9FD8C828D83E0F8A3E0F9850882851F
:1051A8000983E0FAA3E0FB1213E9EE240DF582EF80
:1051B8003400F583E8F0A3E9F08C828D83E0F8A34E
:1051C800E0F9850882850983E0FAA3E0FB1213E978
:1051D8008B09EA45096013EE240DF582EF3400F5DA
:1051E80083E02401F0A3E03400F0024B5E74F61271
:1051F80014E4EAFEEBFFEE242EF582EF3400F5838B
:10520800E0FCA3E0FD780079FAECFAEDFB1213E973
:10521800EE246FF582EF3400F583E8F0A3E9F07827
:105228000079FAECFAEDFB1213E98B09EA450960FB
:1052380013EE246FF582EF3400F583E02401F0A328
:10524800E03400F0024B5E74EC1214E4EAFEEBFF6B
:1052580074141214C0780812132C120B3E8A0C8B8B
:105268000D8C0E8D0F7510027511007512007513D7
:1052780000780C79101212927510FF7511FF7512D3
:10528800FF780C79101212F3780C1216F38E828FB5
:1052980083E0F8A3E0F5838882A3A312134A1221BE
:1052A80001740412148AE960030253B38E828F8357
:1052B800E02402F8A3E03400F9E8FAE9FB8A828BDB
:1052C8008378081212B88A828B837508FF7509FFE4
:1052D800750AFF750B007808121319EE240BF58276
:1052E800EF3400F583C082C0838E828F83A3A3A38B
:1052F800A3A3E02401F8A3E03400F9D083D082E02E
:10530800687003A3E069700579010253B58E828F36
:1053180083A3A3A3A3A3A3A3E02401F0A3E03400E1
:10532800F0EE2473F582EF3400F583E06401703603
:10533800EE2474F582EF3400F583E0F8A3E0F98EEB
:10534800828F83A3A3A3A3A3A3A3E0687003A3E00E
:10535800697013EE2474F582EF3400F583E02401BC
:10536800F0A3E03400F0EE247FF582EF3400F583FB
:10537800E064017036EE2480F582EF3400F583E0B6
:10538800F8A3E0F98E828F83A3A3A3A3A3A3A3E02A
:10539800687003A3E0697013EE2480F582EF34008F
:1053A800F583E02401F0A3E03400F079000240C264
:1053B80074F61214E4E9FEECFFEA2462F582EB3499
:1053C80000F583E0640160030254619061D0E0F568
:1053D80008EA2482F582EB3400F583E0600478045F
:1053E800800278007480C39508FC95E0FDEF28F8EA
:1053F800E43400F9E82402F8E93400F9EC98ED996E
:10540800A2D265D033404E740A1214C0E0F508A346
:10541800E0F509EA2482F582EB3400F583E06015B3
:1054280078081216F7EFFCEEF9120A8A74021214C1
:105438008A74042FFF74012FF5D98ED9EF600F8578
:105448000882850983F8E0F5D9A318E870F875E1B2
:1054580095790080067907800279FF024B5E74F720
:105468001214E4A2AFE433FEC2AF8A828B83E0F861
:10547800A3E0F9E8498A828B83600AA3A3E0F8A332
:10548800E0F5838882ECF0A3EDF08A828B83A3A3F6
:10549800ECF0A3EDF08C828D83E4F0A30248507405
:1054A800F71214E4E96021F88C828D83E08A828BFC
:1054B80083F08C828D83A3AC82AD838A828B83A395
:1054C800AA82AB8318E870E0ECFAEDFB0248587446
:1054D800F41214E4907803E064427055900544E0B7
:1054E80014F0704DC2AF1254F100782AD0E0F618CB
:1054F800D0E0F6E59F540770057509FF800375092C
:105508007FC4C0E07829E6F50808E65509F509746E
:105518000B7808121452D0E02508F8906270E0A2C7
:10552800E740F8E8C333906272F0906270E0D2E02E
:10553800F09003D0E0F470030258D1E0F875F0035E
:10554800A4C8AAF02AF974D228FE740339FFEE24FD
:1055580001F582EF3401F583E0F8A3E0F9E849604A
:105568001EEE2401F582EF3401F583E0FAA3E0FB97
:10557800EE2400F582EF3401F583E0F9120E4A8E2D
:10558800828F83A3A3A3A3A3A3A3E0F8A3E0F98E28
:10559800828F83A3A3A3A3A3E8F0A3E9F0906054A8
:1055A800E09003A9F0906055E09003AAF09060564F
:1055B800E09003ABF0906057E09003ACF090605837
:1055C800E09003ADF0906059E09003AEF090605A1F
:1055D800E09003AFF090605BE09003B0F090605C07
:1055E800E0FC9003B1F090605DE0FB9003B2F090B6
:1055F800605EE0FD9003B3F090605FE0FA9003B462
:10560800F09003AFE08C082508F8E43400F98D0821
:10561800E82508F8E93400F98B08E82508F8E934A2
:1056280000F98A08E82508FAE93400FBEE24F6F5C3
:1056380082EF3400F583E02AF0A3E03BF08C08EE1B
:1056480024F8F582EF3400F583E02508F0A3E03470
:1056580000F0EE24FAF582EF3400F583E02401F03F
:10566800A3E03400F0EE24FEF582EF3400F583E089
:10567800F8A3E0F9E8496042906000E0C333FCE435
:1056880033FDE82CF582E93DF583E02AF0A3E03B01
:10569800F0906000E0FA9003B1E0FCEAC333FAE46A
:1056A80033FBE82AF8E93BF9E8244AF582E93400B3
:1056B800F583E02CF0A3E03400F09003AFE0701124
:1056C8009003B2E0700BA3E07007A3E070030257E9
:1056D800CE8E828F83A3A3A3A3A3E0F8A3E0F9EE61
:1056E800240DF582EF3400F583E028F8A3E039F9BA
:1056F800EE240BF582EF3400F583E8F0A3E9F0EE31
:10570800240FF582EF3400F583E4F0EE241CF582D3
:10571800EF3400F583E06401701EEE2420F582EF7B
:105728003400F583E0F8A3E0F9EE241DF582EF34A8
:1057380000F583E8F0A3E9F09003AAE06052EE24B4
:105748001CF582EF3400F5837401F0EE2469F582CC
:10575800EF3400F583E07038EE2473F582EF3400FF
:10576800F583E0702BEE247FF582EF3400F583E0BB
:10577800701EEE2420F582EF3400F583E0F8A3E0F4
:10578800F9EE241DF582EF3400F583E8F0A3E9F083
:10579800906062E070030258818E828F83E0F8A3E4
:1057A800E0F9E82406FCE93400FDE82402FAE934CB
:1057B80000FB120B388E828F83E0F8A3E0C8241216
:1057C800F582E80258879003B1E0603AEE240FF5BD
:1057D80082EF3400F583E4F0EE241CF582EF340008
:1057E800F583E064017040EE2420F582EF3400F583
:1057F80083E0F8A3E0F9EE241DF582EF3400F58389
:10580800E8F0A3E98020EE24FCF582EF3400F5836C
:10581800E02401F0A3E03400F0EE241DF582EF341B
:1058280000F583E4F0A3F0EE240BF582EF3400F5E5
:1058380083E0F8A3E0F98E828F83A3A3A3A3A3E058
:10584800687003A3E0696003025740EE240FF582F5
:10585800EF3400F583E060128E828F83A3A3A3A3A5
:10586800A3E064057002A3E0600479088002793E31
:10587800EEFAEFFB120A128050EE241DF582EF3487
:1058880000F583E4F0A3F09061C8E06006121ABD49
:10589800E970F48E828F83A3A3A3E0602C9061C883
:1058A800E070069060607480F0EEFAEFFB120B0275
:1058B800E9640160147902EEFAEFFB121C6A120A1D
:1058C800F6E964016003120AA27F040215B653BF09
:1058D800EF02011F74EC1214E49003D0E0F875F0A5
:1058E80003A4C8AAF02AF974D228FE740339FF90D9
:1058F80061D0E07013EE2463F582EF3400F583E0A5
:10590800F8A3E0F9E849600FEE241DF582EF3400B2
:10591800F583E4F0A38053EE2469F582EF3400F5B3
:1059280083E07047EE2473F582EF3400F583E0706E
:105938003AEE247FF582EF3400F583E0702DEE24F3
:105948001CF582EF3400F583E06401701EEE24201C
:10595800F582EF3400F583E0F8A3E0F9EE241DF5B5
:1059680082EF3400F583E8F0A3E9F08E828F83A3F9
:10597800A3A3A3A3E0F8A3E0F9EE241DF582EF3476
:1059880000F583E028F8A3E039F9E8240108E934B0
:1059980000F9EE2407F50AEF3400F50B850A82F5C5
:1059A80083E8F0A3E9F0EE240BF582EF3400F583E9
:1059B800C3E098A3E09950358E828F83A3A3A3A355
:1059C800A3A3A3C082C083EE240BF582EF3400F5B5
:1059D80083E0F8A3E0F9D083D082E0C398F8A3E08D
:1059E80099F9C3E894AAE994105035803BEE240B4A
:1059F800F582EF3400F583C082C0838E828F83A343
:105A0800A3A3A3A3A3A3E0F8A3E0F9D083D082E0E3
:105A1800C398F8A3E099F9C3E894ABE99410500847
:105A28009004E7E064017030EE241DF582EF340045
:105A3800F583E4F0A3F08E828F83A3A3A3A3A3E04E
:105A48002401F8A3E03400F98E828F83A3A3A3A3D3
:105A5800A3A3A3E8F0A3E9F0EE2473F582EF3400E2
:105A6800F583E064016003025CD7EE2474F582EFED
:105A78003400F58312170E8E828F83A3A3A3A3A3EA
:105A8800A3A3E0FCA3E0FD8E828F83A3A3A3A3A31B
:105A9800E0FAA3E0FB121A76740212148AE9700382
:105AA800025CD7EE2474F8EF3400F9880889098875
:105AB80082F583E0F8A3E0F9850A82850B83E8F094
:105AC800A3E9F0EE2476FCEF3400FDEEFAEFFB12CA
:105AD8000A1EEE247BF582EF3400F583E0F8A3E09C
:105AE800F9EE2420F582EF3400F583E8F0A3E9F01D
:105AF800EE241CF582EF3400F583E4F0EE241DF566
:105B080082EF3400F583E4F0A3F0EE240FF582EF82
:105B18003400F5837401F0850A82850B83E0F8A3CD
