:020000040000FA
:06000000020107021ED7F9
:03002B000222E5C9
:03005300021F4A3F
:10008300021D43E5C754F84401F5C7790122000076
:100093000080FB120086B900030200F1E4792178A5
:1000A30008B800028004F709D8FCE479297802B87B
:1000B30000028004F709D8FCE490028178327908C1
:1000C3008002F0A3D8FCD9FA7AB27B099001377881
:1000D3005E79038015E493A3AD82AE838A828B831A
:1000E300F0A3AA82AB838D828E83D8E9D9E7758288
:1000F3008675839274031201197582917583007456
:100103000012011975D00075813F751881751902A8
:10011300759F00020096C09FF59FE473D09F22D085
:1001230083D082C09FE493C0E0740193C0E0740263
:1001330093F59F22FF0000B4000028002800283018
:1001430075A000A000A000A00000080008E001F0D6
:10015300001000100010001000100010005000509C
:1001630000500010001000D0070000000000000F36
:100173000001000500307507001000010081FF0039
:10018300000000FF8C05AA059205FF020202080287
:100193005000A0000000E80302AC8101000094813C
:1001A30002B081010000090A02B681010000B30216
:1001B30002B0810100000A0A02B881010000C902ED
:1001C30002B0810100000B0A02BA81010000CB02D8
:1001D30002B0810100000C0A02BC81080000CC02BD
:1001E30002B0810100000D0A02BE810100000E0A67
:1001F300FF0100FF2002AC81010000978102B08162
:10020300010000720A02C081000000000002B481F4
:1002130003000019033E0B3E0B3E0B3E0B3E0B3E11
:100223000B3E0B3E0B3E0B3E0B3E0B3E0B3E0BC001
:100233000DD80DBA0DFFFF11071E948DF1483194AF
:10024300BA754C3E5000003D710201060909424C4B
:1002530045204D696E6900000000000000000000A9
:10026300000000000000000044696D6D65723032CB
:1002730000000000000000000000000000B20F00BA
:1002830000B80F020202020202020202010D000084
:1002930000100102AC810100009D8102B0810100C8
:1002A30000010B02A281010000E50702B0810100F9
:1002B30000020B02A081010000358102B081010020
:1002C30000030B02CA81010000278102B0810100F3
:1002D30000040B02C681010000A58002B081010069
:1002E30000050B02C481010000938002B08101006C
:1002F30000060B02C281010000818002B08101006F
:1003030000070B02A681010000B78002B081010043
:1003130000080B02A481010000198102B0810100D1
:1003230000090B024A810100000A0B01E803053FA3
:10033300100AFF00013075030201060000000000EF
:1003430000000000000000000000000000000000AA
:1003530000000000000000FFFF0600800CE8030A15
:10036300436861726163746572697374696320328F
:100373000002AC810100009A8102B081010000DD1E
:100383000B10C980030000000002B281010000DEEF
:100393000B12012238FE021201224FFE0212012229
:1003A30080FE02120122BBFE02120122E5FE0212AE
:1003B30001220FFF0212012226FF021201223DFF3A
:1003C3000212012254FF021201227DFF02120122B6
:1003D30090FF02120122A6FF02120122D0FF021295
:1003E300012216A5021201221AA60212012252A606
:1003F3000212012275A60212012280A60212012214
:10040300A3A602120122B2A70212012287A8021296
:10041300012202A9021201228AA902120122C5A9FC
:1004230002120122FCA9021201228AAA021201224B
:1004330063AB02120122C3AB02120122CEAB021242
:1004430001224DAC0212012250AC0212012253AC24
:1004530002120122E2AC02120122E5AC02120122D5
:1004630015AD021201223FAD021201222DAE02127E
:100473000122DFAE0212012242DF021201226ADFF1
:100483000212012298DF02120122CFDF021201229F
:100493002DE00212012278E002120122C3E00212CF
:1004A300012203E10212012249E10212012277E152
:1004B3000212012234E2021201223EE2021201225E
:1004C3004BE2021201227EE2021201224AE30212ED
:1004D300012256E3021201226EE30212012278E3A3
:1004E30002120122B78F03120122C58F03120122C8
:1004F300DD8F03120122F58F03120122BAB4011218
:10050300012266B501120122E1B50112012202B7EF
:10051300011201223EB701120122E7B701120122A3
:10052300CEB80112012232BA0112012289BA011294
:1005330001220ABB01120122FABB0112012247BCAC
:1005430001120122CDBC01120122FFBC01120122C2
:1005530013BF0112012255BF0112012273BF011201
:100563000122F6BF01120122CAC00112012292C167
:100573000112012263C70212012236C802120122AC
:10058300DFC80212012232C902120122E2C9021299
:1005930001226ECA021201225ACB0212012289CB16
:1005A300021201229CCC02120122E4CC021201228B
:1005B300B9CD02120122F5CD0212012211CE02128F
:1005C3000122399103120122FFFB0112012215FCC2
:1005D300011201223BFC0112012257FD01120122EB
:1005E30061FD0112012296FE011201228EFF01120A
:1005F30001221BDA021201224BDB021201227EDBF3
:1006030002120122C8DB021201228FDD0212012233
:10061300E095011201224A9601120122A9970112C3
:100623000122B99701120122E697011201223D9896
:1006330001120122E69801120122ED990112012211
:10064300B79A01120122179C011201225A9C01122E
:100653000122FF9C01120122259D01120122339FD9
:1006630001120122389F011201223DA10112012230
:100673008AA101120122FDA10112012230A201125D
:100683000122D2A2011201227BA301120122B3A3F0
:1006930001120122B6A301120122FEA301120122BB
:1006A3003EA40112012295A401120122008003122B
:1006B3000122188003120122608003120122768036
:1006C30003120122BD8003120122D18103120122F0
:1006D3005E8203120122A982031201221023001257
:1006E30001221C23001201225723001201229C2302
:1006F300001201225C2400120122E22400120122D2
:100703000E2500120122472500120122852700121F
:1007130001226929001201224F2B00120122922C7F
:1007230000120122E02E00120122F22F00120122F8
:100733003D31001201224D32001201226A320012B1
:100743000122A53200120122C732001201222A33EC
:1007530000120122EB37001201228038001201221D
:10076300D13800120122F838001201224A3900124E
:100773000122683900120122C23900120122C13A52
:1007830000120122453B00120122FFE30212012263
:1007930009E4021201224CE40212012267E402126C
:1007A3000122F7E4021201221FE5021201225CE595
:1007B3000212012293E502120122BCE50212012278
:1007C30031E60212012246E6021201225BE6021220
:1007D30001228CE602120122A0E602120122C5E6E2
:1007E30002120122FFE6021201222BE7021201226A
:1007F300AEE702120122F7E70212012221E80212F8
:1008030001224CE802120122C48B03120122158D2E
:1008130002120122438D02120122918E0212012241
:10082300718F02120122908F021201220D90021287
:100833000122509002120122A69102120122679214
:1008430002120122EE94021201228F95021201225A
:10085300859602120122829702120122DC9802126B
:100863000122679902120122698A03120122D28AA4
:1008730003120122268B031201224D8B0312012244
:100883007E8B0312012274E802120122E1E80212B4
:10089300012228E90212012240EA021201223CEB62
:1008A300021201221FEC0212012250AF0212012296
:1008B30092AF0212012264B0021201223DB1021270
:1008C300012237B20212012219B30212012282B3AA
:1008D3000212012238B402120122ACB40212012224
:1008E30018B50212012241B502120122BBB5021250
:1008F300012254B602120122B9B602120122CEB667
:100903000212012214B7021201222DB70212012290
:1009130092B70212012295B70212012250F8021275
:10092300012278F802120122B6F80212012274F9A8
:1009330002120122DBF902120122F7F9021201224B
:100943001FFA021201224FFA021201225EFA021268
:100953000122DBFA0212012201FB0212012282A50B
:100963000112012260A70112012292A901120122A0
:10097300CEA901120122FBA901120122E5AA01124B
:10098300012230AB011201227BAB011201228DAB9C
:1009930001120122CDAB0112012202AC011201228C
:1009A30050AC011201227FAC01120122A2AC011250
:1009B3000122EFAC0112012274AD011201228EAFAC
:1009C30001120122CDB1011201220EB20112012244
:1009D300B0B301120122F1B30112012264B4011276
:1009E3000122008002120122FE8002120122978757
:1009F30002120122B88902120122838B0212012200
:100A0300EB8C02120122AC3B001201225B3C001270
:100A13000122A13C00120122E13D00120122773F95
:100A230000120122F13F001201220C4000120122A8
:100A3300874000120122E1410012012241430012CA
:100A43000122474400120122A84500120122C14598
:100A5300001201221F46001201220D47001201223B
:100A6300404700120122B047001201222A48001217
:100A730001227448001201223E4900120122134A46
:100A830000120122F24A001201227D4B00120122C0
:100A9300EB4B001201225F4C001201228A4C001220
:100AA3000122494D00120122AE4E00120122CB4E0B
:100AB30000120122EA4E00120122DB4F0012012232
:100AC3000050001201222A5000120122A5500012E8
:100AD3000122FF5000120122685200120122165314
:100AE300001201225753001201222BEE01120122A0
:100AF30079EE0112012285EE0112012263EF011248
:100B0300012294EF01120122C5EF0112012245F0E7
:100B1300011201227DF001120122CFF00112012204
:100B23000CF10112012229F3011201224FF50112E6
:100B330001223AF70112012224F901120122FBFFDB
:100B430001120122CD8101120122FD810112012234
:100B5300D688011201225B8A0112012258900112E8
:100B630001224091011201227D9101120122A091E3
:100B730001120122D19101120122DA910112012203
:100B8300E49101120122D29201120122C8930112AF
:100B930001228753001201228657001201228C572B
:100BA30000120122C75E00120122E063001201223B
:100BB300B97C00120122B37D00120122277E0012AC
:100BC3000122657E00120122D97E00120122527F8A
:100BD300001201225B7F00120122677F00120122B3
:100BE3007C7F00120122BA7F00120122D07F001203
:100BF3000122E1EC02120122EEEC0212012208EDC5
:100C03000212012247ED0212012285ED0212012296
:100C1300EAED02120122FFED021201220AEE021294
:100C2300012217EE021201222EEE021201223CEEE5
:100C33000212012247EE0212012253EE0212012296
:100C430062EE021201226DEE0212012290EE0212F6
:100C5300012237EF0212012247EF0212012261EF54
:100C6300021201227EEF021201229AEF02120122E6
:100C7300BFEF02120122CAEF02120122DFEF0212BA
:100C83000122F3EF0212012254F0021201225AF060
:100C93000212012260F00212012266F00212012206
:100CA3007EF002120122B1F0021201221CD20112C3
:100CB3000122A0D2011201224FD301120122AED48C
:100CC30001120122CFD601120122BBD70112012248
:100CD300F0D70112012212D801120122C1D8011248
:100CE3000122B9DA01120122E2DA0112012274DBD4
:100CF30001120122A6DB01120122B3DB0112012240
:100D03000ADC0112012230DC011201229DDE0112F4
:100D13000122A0DF01120122F8DF01120122ABC37D
:100D230001120122B5C4011201229CC50112012244
:100D3300A6C501120122C8C501120122D4C50112A0
:100D430001226DC7011201229CC701120122B8C8FA
:100D53000112012211C90112012277CA01120122D3
:100D630056CB01120122B2CB011201221FCC011278
:100D730001225ACC0112012299CC0112012252CF35
:100D8300011201226CCF01120122F8CF01120122BC
:100D930006D0011201225FD0011201226DD001128F
:100DA3000122E0D00112012244D1011201228ED18D
:100DB30001120122E899021201220A9A0212012267
:100DC300309C02120122459F021201225DA00212F1
:100DD300012210A102120122F2A1021201223D8777
:100DE30003120122628703120122D4870312012214
:100DF300E9BF02120122F2BF02120122FBBF02125B
:100E03000122D2C00212012283C202120122B9C2FC
:100E130002120122F3C20212012229C30212012289
:100E230063C30212012297C302120122C3C3021237
:100E330001220CC40212012246C4021201228FC4F1
:100E430002120122E7C4021201221CC5021201226E
:100E530077C502120122B1C50212012202C6021293
:100E6300012238C60212012272C602120122A0C652
:100E730002120122C3C6021201228E900312012222
:100E8300BA90031201221591031201221F9103123A
:100E930001222F9103120122ADD402120122B7D4F1
:100EA30002120122F5D4021201223ED502120122BE
:100EB30078D502120122D2D502120122F3D50212F1
:100EC3000122FCD5021201224DD60212012276D64E
:100ED3000212012280D602120122ECD60212012252
:100EE3007AD702120122C8D702120122FED70212B8
:100EF300012285D802120122C5D802120122FDD88F
:100F0300021201220FD9021201222ED9021201224A
:100F130037D902120122F1D90212012227920312B8
:100F23000122E18D031201223E8503120122748501
:100F330003120122AA85031201220387031201224D
:100F4300BD9103120122D39103120122DD910312F9
:100F530001222EF10212012247F102120122EBF1CA
:100F6300021201222BF20212012244F20212012286
:100F730078F202120122C5F202120122F9F20212E0
:100F830001223BF302120122DB8E03120122048FA2
:100F9300031201222D8F031201226F8F03120122EC
:100FA300B48F0312012286CE0212012291D00212C3
:100FB30001227AD10212012239D20212012246D42D
:100FC300021201223FF50212012264F502120122EC
:100FD30090F5021201222593031201229668001252
:100FE3000122FA6A00120122AC6C001201229E6DEA
:100FF30000120122236E00120122A16E00120122AF
:10100300CE6E00120122F271001201226C720012E4
:1010130001225B7300120122957300120122D57322
:10102300001201228F7500120122E27500120122C3
:101033002B7600120122997600120122CB76001240
:101043000122E37600120122F877001201220878C8
:10105300001201223879001201225A79001201226A
:10106300907900120122357B00120122747B001259
:101073000122947C00120122DC92031201221B93B1
:101083000312012298930312012298FF01120122F5
:10109300A8FF01120122B4FF01120122F8FF01127D
:1010A3000122DD8C03120122628D03120122C88DFD
:1010B30003120122C29303120122A99303120122F4
:1010C300C09303120122E28803120122378903121B
:1010D3000122A58903120122158A03120122D38258
:1010E30003120122FD8203120122D2830312012281
:1010F300C68403120122B9B70212012276B8021282
:101103000122B1B802120122D9B8021201223BB95D
:101113000212012287B902120122E0B9021201224E
:1011230071BA0212012273BB0212012230BD0212F4
:101133000122B2BD0212012217BE021201222EBEEB
:10114300021201223EBF021201227CBF02120122BF
:1011530046E001120122D0E30112012258E50112F7
:101163000122AFE501120122CEE5011201224CE674
:1011730001120122EAE701120122CEE80112012243
:10118300B8EC0112012288ED0112012249FB02127F
:10119300012282FB02120122C7FB02120122E4FB9D
:1011A300021201221FFC0212012262FC021201221E
:1011B30002FD021201226C9303120122E2FF02E0FC
:1011C30066701008A3E066700A08A3E0667004085E
:1011D300A3E06622C3E7960809E7960809E796089D
:1011E30009E79622C3E09608A3E09608A3E09608D1
:1011F300A3E09622C008C3E096F50808A3E0964250
:101203000808A3E096420808A3E09645087001D3B6
:10121300D00822080808EAC0E0EBC0E086F0E7A4A3
:10122300FA180986F0E7A42AFA180986F0E7A42A2F
:10123300FA180986F0E7A42AFA1986F0E7A4FBE571
:10124300F02AFA190886F0E7A42BFBE5F03AFA191D
:101253000886F0E7A42BFBE5F03AFA18180986F0A4
:10126300E7A4C5F02BFBE43AFA1908E7C5F0C6A4D6
:1012730026F6E5F03BFBE43AFA1886F0E7A4F6E538
:10128300F00826F6E43B08F6E43A08F6D0E0FBD093
:10129300E0FA226016080808C6C313C618C613C6A8
:1012A30018C613C618C613C6D5E0EA227009080883
:1012B30008226016181818C6C333C608C633C608F2
:1012C300C633C608C633C6D5E0EA22E627F60809C0
:1012D300E637F60809E637F60809E637F622E02688
:1012E300F608A3E036F608A3E036F608A3E036F6E0
:1012F30022E026F008A3E036F008A3E036F008A3C6
:10130300E036F022C3E697F60809E697F60809E601
:1013130097F60809E697F622C3E096F008A3E0964D
:10132300F008A3E096F008A3E096F022E657F6084B
:1013330009E657F60809E657F60809E657F622E0E4
:1013430056F608A3E056F608A3E056F608A3E056BF
:10135300F622E056F008A3E056F008A3E056F008A2
:10136300A3E056F022E0F608A3E0F608A3E0F608AF
:10137300A3E0F622E6F008A3E6F008A3E6F008A34C
:10138300E6F022E0FAA3E0FBA3E0FCA3E0FD22EAFF
:10139300F0A3EBF0A3ECF0A3EDF022E0F8A3E0F967
:1013A300A3E0FAA3E0FB22E8F0A3E9F0A3EAF0A3A9
:1013B300EBF022CAC0E0E6F0A308DAFAD0E0FA22A2
:1013C300CAC0E0E0A3C582CCC582C583CDC583F086
:1013D300A3C582CCC582C583CDC583DAE6D0E0CA76
:1013E30022C3E498F8E499F91214258026C3E49AF9
:1013F300FAE49BFBE920E7E9121425E498F8E49961
:10140300F922C3E498F8E499F9121425E498F8E46E
:1014130099F9C3E49AFAE49BFB22EB20E7CFE92096
:10142300E7E0B90010BB0008E88AF084F8AAF022CC
:10143300E4FBC8FA22EB70227B10C833C8C933C956
:10144300335007C39AC3DBF280069A50012ADBEAC2
:10145300C833F4C8C933F4C9FA2275F008E4C833B1
:10146300C8C933C933C99AC99B5004C92AC93BD5D2
:10147300F0ECFBC833F4C8E4C9FA22600D08C6A235
:10148300E713C618C613C6D5E0F322600C08C6C31B
:1014930013C618C613C6D5E0F422700422600D18D3
:1014A300C6C333C608C633C6D5E0F41822251810C0
:1014B300AF08F518400C15198008F51840021519E6
:1014C300D2AF2200C0D0251810AF08F518500C0574
:1014D300198008F51850020519D2AFD0D02225186B
:1014E300F58210AF08F518400C15198008F518405F
:1014F300021519D2AF851983222518F582E435190F
:10150300F583222518F8E43519F9222518FAE4356C
:1015130019FB222518FCE43519FD22E4732518C5AF
:1015230082C0E0E51934FFC583C0E0E518C39582A6
:1015330024F810AF088583198582188008858319DC
:10154300858218D2AFCEF0A3E520F0A37808E60891
:10155300F0A3DEFAEFF0A3E58124FAF8E608F0A39E
:10156300E608F0A3E608F0A30808E608F0A3E608F7
:10157300F0A315811581D0E0FED0E0F81581158127
:101583001581E8C0E0EEC0E0222518C582C0E0E581
:101593001934FFC583C0E0E518C3958224F910AF61
:1015A300088583198582188008858319858218D256
:1015B300AFCEF0A3E520F0A37808E608F0A3DEFAA7
:1015C300EFF0A3E58124FBF8E608F0A3E608F0A317
:1015D3000808E608F0A3E608F0A315811581D0E01A
:1015E300FED0E0F815811581E8C0E0EEC0E0228569
:1015F3001983851882E0A3FEE0A3F5207808E0A311
:10160300F608DFFAE0A3FFE0A3C0E0E0A3C0E0E058
:10161300A3C0E0E0A3C0E0E0A3C0E010AF08858270
:10162300188583198008858218858319D2AFD083E2
:10163300D08202011F851983851882E0A3FEE0A3EF
:10164300F5207808E0A3F608DFFAE0A3FFE0A3C0E3
:10165300E0E0A3C0E0E0A3C0E0E0A3C0E010AF0877
:101663008582188583198008858218858319D2AFEE
:10167300D083D0822274048006740280027401C075
:10168300E0F4041214E1D0E01213B62274048004CF
:1016930074028000CCC0E0EDC0E0E518C39CCCAD83
:1016A3001950011D10AF068C188D1980068C188DEA
:1016B30019D2AF1213C3D0E0FDD0E0FC22D083D007
:1016C30082E9C0E0E493A3C386F0C5F095F0F9087E
:1016D300E493A386F0C5F095F0700BE493A3C3994C
:1016E3004005E9048002A3E475F002A42582F58293
:1016F300E5F03583F583D0E0F9E493A3C0E0E49308
:10170300C0E022D083D082ECC0E0EDC0E0E493A33C
:10171300FCE493A3FDED4C600D121752EC24FFFC87
:10172300ED34FFFD80EFE493A3FCE493A3FDED4CC4
:10173300600D121791EC24FFFCED34FFFD80EFD018
:10174300E0FDD0E0FCE493A3C0E0E493C0E022C05A
:10175300E0C3E49396087401939618400FE49366EC
:10176300700808740193661870007019A3A3C3E48A
:101773009396087401939618A3A3400DD0E0D0E08C
:10178300D0E0021742A3A3A3A3A3A3D0E022C0E007
:10179300C0F088F0E49366700808740193661870CB
:1017A30000A8F0A3A3700BD0F0D0E0D0E0D0E0020B
:1017B3001742A3A3D0F0D0E02274F512158CEAFEF1
:1017C300EBFFEE2434F8EF3400F988088909EE249E
:1017D30035F582EF3400F583E0F8EE2437F582EF38
:1017E3003400F583E0F50AEC850AF0A4FCAAF08541
:1017F3000AF0EDA42AFDE82CF8E43DF97A257B00F4
:10180300121425EA850882850983F0F8740758F9CC
:101813007401B900028004C333D9FCFAE81313132B
:10182300541FF8EE28F8EF3400F9E8245DF582E957
:101833003400F583E05A6008EE2434F582EF802CFF
:10184300EE2434F582EF3400F583E0C0E0EE243675
:10185300F582EF3400F583E0F5F0D0E084A8F0EEF4
:1018630028F8EF3400F9E82438F582E93400F583E9
:10187300E0F97F0402163874F512158CEAFEEBFFCB
:10188300EE2434F582EF3400F583E0C0E0EE243536
:10189300F582EF3400F583D0E0F08E828F83A3A32B
:1018A300A3A3A3A3A3C082C0838E828F83A3A3A376
:1018B300A3A3E0F8A3E0F9D083D082E0C398F508AE
:1018C300A3E099F509EE247FF582EF3400F583E078
:1018D30064017069EE2480F582EF3400F583E0F84B
:1018E300A3E0F98E828F83A3A3A3A3A3A3A3E0FC06
:1018F300A3E0FD8E828F83A3A3A3A3A3E0FAA3E0B7
:10190300FBC3EA9CEB9D5010C3EC98ED99402EC3AA
:10191300EA98EB995027800EC3EA98EB994007C3E6
:10192300EC98ED9940177CDC7D04EEFAEFFB120A8C
:101933009CEE247FF582EF3400F583E4F0EE24344B
:10194300F8EF3400F9E8FCE9FDEE2435F582EF34D5
:1019530000F583E0F8EE2437F582EF3400F583E0F9
:10196300F50AE508850AF0A4F508AAF0850AF0E56A
:1019730009A42AF509E82508F8E43509F97A257B4D
:1019830000121425EA8C828D83F0F8740758F974D9
:1019930001B900028004C333D9FCFAE813131354CA
:1019A3001FF8EE28F8EF3400F9E8245DF582E934F6
:1019B30000F583E05A6008EE2434F582EF802CEEC4
:1019C3002434F582EF3400F583E0C0E0EE2436F5ED
:1019D30082EF3400F583E0F5F0D0E084A8F0EE2840
:1019E300F8EF3400F9E82438F582E93400F583E0B0
:1019F300F91222D1021875C082C083851882851915
:101A030083E0F8A3E0F9C3EA9CEB9D5010C3EC9884
:101A1300ED99401BC3EA98EB995014800EC3EA98E2
:101A2300EB994007C3EC98ED994004790180027962
:101A330000D083D08222EAC39CFAEB9DFB2274EF91
:101A430012158C9003A2E064086005E06407702A15
:101A53009061C8E060249003D0E0F4601DE0F87565
:101A6300F003A4C8AAF02AF974D228FE740339FF3C
:101A73008E828F83A3A3A3E07003021B7190606027
:101A8300E0C0E0EE2468F582EF3400F583D0E0F0A7
:101A9300750C45750D05750800750900E5D914F534
:101AA3000AE5D95403F50E60177403650E605CE50F
:101AB3000A6010EE2467F582EF3400F583E07003CB
:101AC300021B56900540E06401602AEE2482F582F1
:101AD300EF3400F583E06004780480027800850A1F
:101AE30008E508C398FA95E0FB1209708A088B0988
:101AF300EA45097005120C8E8074EE2482F582EF9C
:101B03003400F583E070048A0C8B0DE50A601285BE
:101B13000C82850D83F50BE5D9F0A3150BE50B704E
:101B2300F6EE2482F582EF3400F583E0604474FC22
:101B3300250AF50A780C12167CAC0AA90EEEFAEF08
:101B4300FB120B3874021214C6E97026AA08AB09FB
:101B53001210CC793D8E828F83A3A3A3A3E0FA7BDB
:101B630000120844EEFAEFFB120AB4120B4A790092
:101B730080747403650E6056850A10751100781021
:101B830012167CAC0CAD0DAA08AB09120B1474022F
:101B93001214C6EE2468F582EF3400F583E0648006
:101BA3007004747F8001E0F50C780C121680E50E4A
:101BB300F50C780C121680A90AAC08AD099003D075
:101BC300E0FA7B0012080874021214C68013900313
:101BD300A2E06408600BAC0CAD0DEEFAEFFB120B48
:101BE300A4120C9A79017F0A02163874F512158C27
:101BF30074FC1214B0EAFEEBFF8908A2AFE433F5DC
:101C030009C2AF806AEE2463F8EF3400F97A007BEF
:101C130000A2AFE433F50AC2AF88828983E0FCA354
:101C2300E0FDEC4D603A88828983E0FAA3E0FB8A09
:101C3300828B83E0FCA3E0FD88828983ECF0A3ED33
:101C4300F08A828B83E4F0A3F088828983E0FCA38B
:101C5300E0FDEC4D700A88828983A3A3E4F0A3F02E
:101C6300E50AA2E092AF1210CC9004E3E004F0EE98
:101C73002463F582EF3400F583E0F8A3E0F9E84943
:101C8300603DEE2463F582EF3400F583E02402FA2D
:101C9300A3E03400FBEA2402F50AEB3400F50B78E9
:101CA3000A12167C8A828B83E0FCA3E0F9EEFAEF3A
:101CB300FB120AD874021214C6E97003021C0890BE
:101CC30004E3E060639004E4E0F89004E3E0C39885
:101CD300500C7402650870509004E5E0604A8E82EF
:101CE3008F83A3A3A3A3E0851882851983F0A3E4BC
:101CF300F09004E3E0F874021214FCE8F0A3E4F0BB
:101D03009004E3E0F89004E2E028F074021214FC7B
:101D1300AC82AD83851882851983AA82AB8379014E
:101D23001208149004E3E4F0E509A2E092AF74040E
:101D33001214C60218750000008521878522C62269
:101D4300C0E0C0D0E8C0E0E9C0E0EAC0E0EBC0E03A
:101D5300ECC0E0EDC0E0EEC0E0C008C009C00AC0BE
:101D63000BC082C083C0F0A2AFE433FEC2AF759B49
:101D730000906182E0A2E05012E591A2E0500C7560
:101D830091FE740165217003121A41E0A2E55051DE
:101D9300E591A2E5504B7591DF9003A2E0640760E3
:101DA30005E064087023740165217035790190039F
:101DB300D0E0FA75F003A4CAA8F028FB74D22AFA7B
:101DC30074033BFB121BEE8018E0640D7013900349
:101DD300C4E004F064287002E4F07A00E0F9120C25
:101DE300A0906182E0A2E64003021E8AE591A2E68A
:101DF3004003021E8A7591BF9003A2E06405700838
:101E0300120BCE120BDA8003120BD4752100120CC5
:101E13002EE99003A3F07900120C22120A127A0120
:101E23007B009003A1E0F9120EF2907803E0644284
:101E33007055900544E014F0704DC2AF121E42007D
:101E4300782AD0E0F618D0E0F6E59F5407700575C0
:101E530009FF800375097FC4C0E07829E6F5080807
:101E6300E65509F509740B780812148ED0E025089D
:101E7300F8906270E0A2E740F8E8C333906272F032
:101E8300906270E0D2E0F0906181E0A2E35009E556
:101E9300E9A2E3500375E9F7A3E0A2E75009E5914E
:101EA300A2E7500375917FEEA2E092AFD0F0D0830A
:101EB300D082D00BD00AD009D008D0E0FED0E0FD0C
:101EC300D0E0FCD0E0FBD0E0FAD0E0F9D0E0F8D0ED
:101ED300D0D0E032C0E0C0D0C082C083906183E044
:101EE300A2E05009E5BFA2E0500375BFFEE0A2E106
:101EF3005009E5BFA2E1500375BFFDE0A2E250091E
:101F0300E5BFA2E2500375BFFBE0A2E35009E5BFC2
:101F1300A2E3500375BFF7E0A2E45009E5BFA2E4D2
:101F2300500375BFEFE0A2E55009E5BFA2E55003FA
:101F330075BFDFE0A2E65009E5BFA2E6500375BF17
:101F4300BFD083D0828088C0E0C0D0E8C0E0E9C0C1
:101F5300E0EAC0E0EBC0E0ECC0E0EDC0E0C0F0E5DB
:101F6300A7A2E6500FE5A1A2E6500953A7BF75A1AA
:101F7300BF121FAFE5A7A2E5500CE5A1A2E55006ED
:101F830053A7DF75A1DFE5A7A2E15009E5A1A2E10F
:101F9300500375A1FDE5A7A2E2500CE5A1A2E25012
:101FA3000653A7FB75A1FBD0F0021EC074F81215EF
:101FB3008C7521019003A2E064067015120B688AE8
:101FC300828B83A3A3A3A3A3A3E0FAA3E0FB120B37
:101FD300BCA2AFE433FED2AF9003A8E06401701853
:101FE3007A207B009003A1E0F9120F767A207B0020
:101FF3009003A1E0F9120EF8906182E0D2E6F0902E
:102003000541E0602185C62280169003A7E06401A4
:102013007008E5C654F84405F5C653BEFC121D3CD2
:102023007401652160E4EEA2E092AF7F01021638ED
:10203300008E238F2485822885832785188285191E
:1020430083E0CEA3E0CF852882852783EBC9EAC846
:10205300EDCBECCA75F010C3E833C8E933C9EA33F2
:10206300CAEB33CBC3EA9EF526EB9FF525B35004A9
:10207300AB25AA26EC33CCED33CDD5F0DAAE23AFC6
:10208300242274ED12158C8A088B098C0A8D0B742B
:10209300131214FC780C1213687808790C1211D7F8
:1020A3007510017511C87512007513005012780868
:1020B300790C121307781079081211D75016801073
:1020C300780C79081213077810790C1211D7400491
:1020D3007901800279007F0C02163874ED12158C99
:1020E3008A088B098C0A8D0B74131214FC780C125A
:1020F3001368780C79081211D740117808790C12FB
:102103001307AA08AB09AC0AAD0B80227510007542
:1021130011007512007513017810790C12130778EA
:102123001079081212CEAA10AB11AC12AD1380A60F
:102133008A828B837508FF7509FF750AFF750B008B
:1021430078081213557F0402163874F512158C8C17
:10215300828D8378081213688A828B83780812131E
:102163001BEA2404F8EB3400F98C828D83A3A3A328
:10217300A3E0FCA3E0FD88828983C3E09CF0A3E095
:102183009DF088828983C3E09420A3E0944E402687
:102193008A828B837508FF7509FF750AFF750BFF2C
:1021A30078081212F48A828B83A3A3A3A3E02420CA
:1021B300F0A3E0344EF002213374F512158CE9FEDE
:1021C3009004F7E0FAA3E0FBEEC333F8E433F974C9
:1021D3000928F582748139F583E02AF508A3E03BE9
:1021E300F509780812167C7A407B427C0F7D001239
:1021F300203474021214C68A088B098C0A8D0B745E
:10220300107808121296AA08AB097F0402163874D4
:10221300F112158C8A0C8B0D8C0E8D0F740F12140A
:10222300FCE0FAA3E0FB74111214FCE0F508A3E050
:10223300F509780812167CEA2401F508EB3400F559
:1022430009E4F50AF50B780C790812121675087172
:10225300750902780C7908121216AA0CAB0DAC0E94
:10226300AD0F12203474021214C68B09EA450960BB
:10227300047A0180027A00EC2AFCED3400FD741329
:102283001214FCE0F8A3E0F9E8FEE9FFECF8EDF93D
:102293007A717B02121425880889098E828F8378CC
:1022A30008121377ECF8EDF97A717B021214258A80
:1022B300088B097405780812149D8E828F83A3A35B
:1022C300A3A3E508F0A3E509F07F08021638C0824E
:1022D300C083E9906000F0D083D08222C2AF0200B5
:1022E3000022C0E0C0D0E8C0E0E9C0E0E5A8D2AF7A
:1022F300C2C7A2E7A2E792AFD0E0F9D0E0F8D0D00E
:03230300D0E032F5
:10230800FFFFFFFFFFFFFFFFC082C083E9900A7154
:10231800F002253A74F7121520E99002E1F07C19D1
:102328007D037AFF7BFF1207669002E274FFF0A339
:10233800F0A3E4F0A3F079051206F49002E1E0F9C5
:1023480012061C7A7E7B071209227F010215F2749D
:10235800F41215208A088B09EB548060309002E152
:10236800E0F9120EDA8A0A8B0BAE0AAF0BEE4F6059
:10237800138E828F83E064B07003120706EEFAEFC3
:10238800FB120EC8AA08E5096480FB80047A007B6A
:102398000002250974F212152074FC1214B0EAFE2A
:1023A800EBFFEE4F603874021214FCEEF0A3EF124C
:1023B800276EECF0A3ED12276EAA82AB83120616E5
:1023C800E9F508707374121214FC123322E50A45F9
:1023D8000B60658E828F8312244AEE4F7005750854
:1023E8000280557A067B00120F348A0C8B0DA80CDC
:1023F800A90DE8497005750813803D88828983E432
:10240800122454A3A3EEF0A3EF1237BBE50AF0A3FE
:10241800E50BF09002E71224DC9002E76017E0FC7D
:10242800A3E08003EAFCEBFD8C828D831224DC7030
:10243800F38C828D83123247A90874041214C602E1
:1024480039BDA3A3A3A3E0FEA3E0FF22F0A3F08875
:102458008289832274F2121520890AE975F017A47B
:10246800FEAFF09002E6E4F09002E41224DC600A89
:10247800120F3A9002E4E4F0A3F0EEFAEFFB120F29
:10248800348A088B09EA4509602FEEFCEFFD7900D4
:10249800120EB69002E4E508F0A3E509F07B00808F
:1024A800081224C6E4F0A3F00BEBC3950A40F2E54A
:1024B8000A9002E6F07900800279130239BDEB75C3
:1024C800F017A4F8A9F09002E4E028FAA3E0398A0A
:1024D80082F58322122FDDEA4B2274F4121520793B
:1024E80000EAA2E0501B7508587509817808121691
:1024F8007C7C047D007A737B0A1206EE7402121447
:10250800C67F040215F2C082C0839002E7122541FB
:10251800601C88828983A3A3E06A7003A3E06B88A8
:1025280082898370E8A3A3A3A3122FD980047A0019
:102538007B00D083D08202011F123A90E8492274AE
:10254800EE12152074FC1214B0EAFEEBFF85188217
:10255800851983E4F0A3F0EE240212322BEE240551
:1025680012275CEE2404F50EEF122B41E024FE60E6
:102578003924FC604624FE605224FE605E24FE700E
:102588000302266124FE70030226D924FE7003028A
:1025980026E824FE70030226F724FC7003022706AF
:1025A80024FE70030227150227529003007417F0C7
:1025B800A3E412277612039A0227528518828519F6
:1025C80083AC82AD8312070C0227228518828519F5
:1025D80083AC82AD83120712022722850C08850D71
:1025E8000974021214FCAC82AD83850882850983C4
:1025F800122FD912063A8A0C8B0DAC0CAD0DEC4D8E
:102608006042E4F50CF50D780C12167C750C00751B
:102618000D03780C12167C750C01750D03780C12DD
:10262800167C74081214FC1216937916122FD31202
:10263800074E74081214C6E9F50C700B122FCF124E
:1026480003B2800F750C01850882850983122764FF
:10265800123247850C0802272574021214FCAC823A
:10266800AD83850C82850D83122FD912063A8A1004
:102678008B11AC10AD11EC4D6043850C82850D8338
:10268800A3A3121693751000751103781012167C07
:10269800751001751103781012167C74081214FC59
:1026A8001216937916122FD312074E74081214C6F5
:1026B800E9F509700B122FCF1203B8800F750901C5
:1026C800850C82850D83122764123247850908809C
:1026D8004C851882851983AC82AD83120718803A1D
:1026E800851882851983AC82AD8312071E802B85DD
:1026F8001882851983AC82AD83120724801C851843
:1027080082851983AC82AD8312072A800D851882D1
:10271800851983AC82AD83120730E9F508E50860B6
:10272800298E828F83A3E06414601F850E82850F33
:1027380083E090030012276E123A8C900301123244
:1027480047E508A3122776120394EEFAEFFB120668
:10275800B2023133F50CEF3400F50D22123A9085B0
:10276800188285198322F085188285198322F07CC6
:10277800007D03850A82850B83122FDD2274EE12F9
:10278800152074FC1214B08A0A8B0B8C0E8D0FEA7C
:102798002405F508EB3400F5097C157D0079007AED
:1027A800007B03120EB6E5082402F50CE509122792
:1027B8005F851882851983858210858311781012A8
:1027C800167C850882850983A3A3A3A3122C8912EA
:1027D800167CE5082405F510E5093400F511781094
:1027E80012167C850C82850D83122FE31206347431
:1027F800061214C68A108B11AE10AF11E50A240216
:10280800F50AE50B12322EEE4F700302294B8017A2
:1028180074021214FC122FD988828983EAF0A3EB80
:10282800F0900300E004F0900300E0C39405400337
:1028380002294BE4F510F511781012167C7510E991
:10284800751102781012167C7510EA75110278104D
:1028580012167C74061214FC1216937910EEFCEF13
:10286800FD122FD312074E74081214C6E9705E8544
:102878000882850983A3A3A3A3A3A3A3E0F89002D6
:10288800E9E0687048122C8912167C7CEA7D02E522
:10289800082408FAE5093400FB120EB07402121479
:1028A800C6E960298E828F83A3A3A3A3122FD99090
:1028B8000300E0F5107402781012149D74012510BD
:1028C800F58274033511F583EAF0A3EBF074021274
:1028D80014FC858210858311781012167C740212FC
:1028E80014FC121693850C82850D83123AA11206E8
:1028F8004074041214C68A108B11AE10AF119003E5
:1029080000E0F5107511007402781012149D74001F
:102918002510F874033511F988828983A31224DC01
:10292800700302280FE82403F8E93400F9EE4F6039
:10293800030228188882898374FFF0A3F0900300AB
:10294800E004F0900300E0600A122FCF1203A6798A
:1029580000800B85088285098312323E790A02318C
:102968003374EA12152074FE1214B08C128D13EA17
:102978002405F50CEB123AAB12244E7508007509C4
:1029880000EA2402F510EB3400F511851882851948
:102998008385820A85830B780A12167C850C8285CA
:1029A8000D83A3A3A3A3122B4B12167CE50C2405BD
:1029B800F50AE50D12322E780A12167C850C8285EE
:1029C8000D83123A9F12063474061214C68A0A8BB3
:1029D8000BEA450B7003022AFCEA2404F50EEB12FD
:1029E8002B4112244E8A828B83A3A3A3E0F985107E
:1029F80082851183122FD9120622E9F50960030294
:102A08002AFCE4F514F515781412167C7514E9758A
:102A18001502781412167C7514EA751502781412CA
:102A2800167C74061214FC1216937913AC0AAD0BBB
:102A3800851082851183122FD912074E740812143B
:102A4800C6E9F5096003022AFC9002E9E0F8E50806
:102A58007009E02402900301F08017900301E0FC64
:102A6800E82402FAE43400FBEA6C7001EB6003022C
:102A78002B00850882AA82122C809414122C78507C
:102A880073850E82850F83E0C0E074022A122B380A
:102A9800D0E0F00508850E82850F83A3E0C0E085AD
:102AA800080A7402250A122B38D0E0F005089002B3
:102AB800E9122B4B12167C7CEA7D0285080A740207
:102AC800250AFA74033400FB120E9E74021214C60F
:102AD8009002E9E02508F50874FF6E700374FF6F33
:102AE8006012EE24010EEF3400FFE508C394145081
:102AF80003022993E5086013122EC48510828511FC
:102B080083122FD91203AC79008014E5097003757C
:102B1800090A851282851383EEF0A3EFF0A90974E0
:102B2800021214C67F0E0215F285080C7402250CD9
:102B3800F58274033400F583223400F50F850E8284
:102B4800F583221237CE2274EE12152074FE121469
:102B5800B08C0E8D0FEA2405F50CEB12275F750B70
:102B680000900300E4F0F50AEA2402F508EB3400CB
:102B7800F5098049900300E0FA9002E9E0F8122C88
:102B8800809417122C78400D900300E0F87416C357
:102B9800989002E9F0122C8912167C7CEA7D027466
:102BA800012AFA74033400FB120E9E74021214C632
:102BB8009002E9E0F8900300E028F0050AE50C240B
:102BC80016F582E50D122B3CE0F8E50AC3984003A0
:102BD800022C61900300E0C39416507DE50AC333CC
:102BE800F8E433F9E50C28FEE50D39FF85188285F0
:102BF8001983AC82AD838E828F83122FD912063A45
:102C08008A108B11AC10AD11EC4D7005750B01805D
:102C180043E4F510F511781012167C7510E975115A
:102C280002781012167C7510EA75110278101216C7
:102C38007C74061214FC121693791685088285098D
:102C480083122FD912074E74081214C6E9F50B70B7
:102C580003022B7C12323A80107C007D03850882A7
:102C6800850983122FD91203BEA90B7402023135CC
:102C7800E99400C365D03322EA28F8E43400F9E87F
:102C880022E0F51075110078102274EA12152074EC
:102C9800FC1214B08A0C8B0D8C128D13EA2405F5E6
:102CA8000AEB12322E750800750900E50A2402F5B0
:102CB80010E50B3400F51174021214FC85820E85A0
:102CC800830F780E12167C850A82850B83A3A3A333
:102CD800A312377A12167CE50A2405F50EE50B34A3
:102CE80000F50F780E12167C85108285118312323A
:102CF80034122FD312063474061214C68A0E8B0FA0
:102D0800AE0EAF0FE50C2402F50EE50D3400F50FFD
:102D180080408882898374FFF00508122B3174FF84
:102D2800F005089002E9E0F50C750D00780C121614
:102D38007C7CEA7D0285080C7402250CFA74033445
:102D480000FB120E9E74021214C69002E9E02508D8
:102D5800F508EE4F60718E828F83A3A3A3E0F985F7
:102D68000E82850F83122FD9120622E9F509EE2467
:102D78000412275CE97044E4F514F515781412166A
:102D88007C7514E9751502781412167C7514EA75A9
:102D98001502781412167C74081214FC1216937912
:102DA80011EEFCEFFD850E82850F83122FD91207D5
:102DB8004E74081214C6E9F5096027850C82850D42
:102DC80083122EBA123247E5087003022EA0122E83
:102DD800C4850E82850F83122FD91203C47900028D
:102DE8002EB5850882AA82EA9002E97009E02404D7
:102DF800900301F08022E0F8900301E0F514E82444
:102E080004FCE43400FDEC65147001ED70C0122C74
:102E1800809412122C7850B6850C82850D83E0C000
:102E2800E074022A122B38D0E0F00508850C828560
:102E38000D83A3E0C0E0122B31D0E0122ED685829C
:102E48000C85830D780C12167C74041214FC12166F
:102E580093851082851183123AA1120640740412D8
:102E680014C68A0C8B0DAE0CAF0D85080C740225A8
:102E78000CF874033400F9EE4F7003022D1A85180C
:102E880082851983E088828983122ED6A3E0C0E068
:102E9800122B31D0E0022D28E509700375090A8547
:102EA8000A82850B83122EBA123247A909740402CA
:102EB8002B29123A9085128285138322900301E010
:102EC800F5F0E50884900300F07C007D0322F0050E
:102ED800088518828519832274EC12152074FE1255
:102EE80014B08A088B098C0E8D0FEA2405FEEB348A
:102EF80000FF851882851983AC82AD838E828F830B
:102F0800122FD912063A8A0A8B0BEE241812275C64
:102F1800EA450B7003022FAA12311C503285188221
:102F2800851983122FD91207428A108B11EA45118D
:102F3800606B7912AC0AAD0B850882850983122F64
:102F4800D985108285118312151EE9F50A7058E497
:102F5800F50AF50B780A12167C8E828F83A3A3E0FC
:102F6800F50A780A12167CEE240312322B780A121C
:102F7800167C8E828F83122FE31207547406121464
:102F8800C6E9F50A7021850C82850D83E0701F85DE
:102F98000882850983122FD91203CA8011750A0E77
:102FA8008009750A018004E50A600312323A850C2B
:102FB80082850D83E0600479008002A90A740212F8
:102FC80014C67F0C0215F27C007D03850A82850BEE
:102FD80083122FDD22E0FAA3E0FB22E0FCA3E0FD50
:102FE800850882850983122FDD2274EE121520745C
:102FF800FE1214B08A088B098C0C8D0DEA2405FE8C
:10300800EB3400FF750E00851882851983AC82ADFC
:10301800838E828F83122FD912063A8A0A8B0BEA83
:10302800450B700302310812311C50358518828512
:103038001983122FD91207428A0E8B0FEA450F60A7
:103048005E7912AC0AAD0B850882850983122FD9E7
:10305800850E82850F8312151EE9F50E6003023175
:103068000B850882850983123322AA0AFB120736C8
:103078008A108B11A810A911E849701E7AFF7BFFEE
:103088001207368A108B11A810A911E849606C88BC
:10309800828983E50AF0A3E50BF0750A00800775BD
:1030A8000E0E805F050A9002E6E0FAE50AC39A5020
:1030B8004AE50A75F017A4FAABF088828983A3A3BE
:1030C800E02AFAA3E03BFB8A828B83123234EC4D70
:1030D80070D2750A17750B00780A12167CEEFCEF91
:1030E800FD120E9E74021214C6EEFCEFFD850882D6
:1030F800850983122FD91203D08014750E09800315
:10310800750E01123A88850C82850D83123247A903
:103118000E022C73E5082402F508E5093400F509C8
:103128008A828B83A3A3A3E0A2E52274041214C6A7
:103138007F0A0215F274EC1215208C108D11EA2406
:1031480005F50CEB12275F750F00EA2402F50AEB70
:1031580012322E850A82F583122FD91207368A0871
:103168008B09EA45097003023220750E00807185CB
:103178000C82850D83E06401704F8E828F83A3A338
:103188001216938E828F83A3A3A3A3E0F51275135F
:1031980000781212167CEE2405F512EF3400F513B0
:1031A800781212167C122FD312075474061214C602
:1031B800E9F50F6014850C82850D83E4F0123A88D6
:1031C8008510828511831232477C177D007900EEC5
:1031D800FAEFFB120EB68E828F83E4F0A3F0050E91
:1031E8009002E6E0F8E50EC398501EE50E75F0175C
:1031F800A4F8A9F0850882850983A3A3123AB51219
:103208003234EC4D60030231778508828509837476
:10321800FFF0A3F0E50F7006122FD31203D6A90F03
:10322800022FCAF50AEF3400F50B22A3E0FCA3E055
:10323800FD228E828F83123A90850E82850F83E855
:10324800F0A3E9F022C082C0839002E2E06A700332
:10325800A3E06B70067AE27B0280047A007B0002AE
:10326800253AC082C08378008C828D83E06A70031F
:10327800A3E06B7010E875F003A4F8A9F0EC28FA45
:10328800ED39FB8015088C828D83A3A3A3E06A70B7
:1032980003A3E06B60DF7A007B0002253A74F61224
:1032A80015201207008A828B83E582458370067A8F
:1032B800007B008007A3A3A3A3122FD90239397476
:1032C800F2121520E9FE740E1214FC123322741047
:1032D8001214FC12379A8C828D83E064027036A334
:1032E800123A96F50CA3E0F9A80C740268700374FE
:1032F80029697021750C02750D00780C12167C78FE
:103308000812167C780A12167CEEF91207787406F1
:103318001214C6800279010239BDE0F50AA3E0F56E
:103328000B2274E812152074FB1214B0E985188278
:10333800851983F08A168B17ECFEEDFF7510007463
:103348001D1214FC123A8C741D1214FC1232478E92
:10335800828F83A3A3A3E0A2E4502D741D1214FC52
:10336800122FD91207428A828B83E5824583700324
:1033780002376B790AEEFCEFFDAA16AB1712151E81
:10338800E9F510600302376E741F1214FC12379AA5
:1033980074211214FC12332274231214FCE0F50E6B
:1033A800A3E0F50F8E828F83E06402600302371971
:1033B800A3123A8C850882850983A38582128583A6
:1033C80013EE240612275C88828983E0FAA3E0F9C9
:1033D800EA2400F514E439F51578141217060100EB
:1033E800002801280E3407000228D334032840346B
:1033F80000290A36012935360229D63503290A3625
:103408000429B4361937E50E450F600302371485D1
:103418000C82850D8312378FFAE9FB8A828B83E051
:10342800850A82850B831237C512167C8A828B83A4
:10343800A3E0FCA3E002369EE50E450F60030237C9
:1034480014850A82850B837401F01237A2850882DD
:10345800850983F07C007D008E828F83A3A3A3A3BC
:10346800E02401FAA3E03400FB12063AEA4B60417B
:103478008A828B83E02402F8850A82850B83E02800
:10348800F0EA2404F8EB3400F988828983E0851295
:10349800828513831237D71237C512167C8A828B1E
:1034A80083123233E5082403FAE5093400FB0236B7
:1034B800A3850A82850B83E02404F07C047D0079CF
:1034C80000AA12AB13120EB602376EE50E450F6056
:1034D800030237141237A2FEA3E0FF850A82850B88
:1034E800837404F0EE850882850983F0EF851282E3
:1034F800851383F074031214FCAC82AD83EEFAEFEB
:10350800FB12063A8A0C8B0DEA450D70030235B79B
:103518008A828B83A3A312244A74011214FC858225
:103528000E85830F780E12167C74051214FC121681
:10353800937CFF7DFF12064074041214C68B0FEAB9
:10354800450F7033850C82850D8312377A12167CED
:10355800850C82850D83A31216937C027D007AAEBA
:103568007B8112046C74041214C6E9700A74011287
:1035780014FC74FFF0A3F08E828F83E0640270392C
:10358800750C02750D00780C12167C8E828F8312D2
:103598003233E5082404FAE5093400FB120E9E7460
:1035A800021214C6850A82850B83E02402800974FE
:1035B800011214FCEEF0A3EFF074011214FC1237A0
:1035C8008BF074011214FCA312378302370EE50E38
:1035D800450F6003023714850C82850D831232343F
:1035E800AA16AB1712076C850A82850B837402F042
:1035F800EA850882850983F0851282851383EB02A8
:103608003711E50E450F60030237141237A2F8A3ED
:10361800E0F9850A82850B837402F0E885088285C3
:103628000983F0E9851282851383023711850C829C
:10363800850D83122FD9120E98EAFC8C82A882C3BA
:10364800950EE4950F405FE8650E7002E50F700473
:103658007C008022851882851983E0FAE50E2AFA13
:10366800E50F3400FBC3EA98EB94005003E08005B3
:10367800E50ECCC39CFCEC850A82850B83F08C0A92
:10368800750B00780A12167C850C82850D83E0255F
:103698000EFCA3E0350FFDAA08AB09120E9E7402BA
:1036A8001214C602376E75100702376EE50E450F05
:1036B800705A850C82850D83123A8C850A82850B97
:1036C800837407122456123783122456A3E08512F6
:1036D80082851383F0E82402FAE93400FB8A828B9E
:1036E800831237831237B212378BA31237BB1237C4
:1036F80094F0E82405F8E93400F9888289831237C0
:1037080094A31237D7A3A3A3A3F0805A75100B80F4
:1037180055741D1214FC122FD91207008A828B834C
:10372800E5824583603D123A8C880C890DE8450D89
:103738006031780E12167C780A12167C78081216F8
:103748007C74061214FCE0F9EEFCEFFDAA16AB1728
:10375800850C82850D8312151E74061214C6E9F5B0
:1037680010800375100EA91074051214C67F10027C
:1037780015F2E0F50E750F00780E22E085088285B7
:103788000983221237E122123A90E8221237E1A384
:10379800A322E0F508A3E0F50922850C82850D83B4
:1037A800E0F8A3E0F5838882E022A3A3F08A828B65
:1037B80083A322F088828983A3A3A3A322F08A8209
:1037C8008B831237CE22E0F50A750B00780A22F0B7
:1037D80088828983A31237E122E0850882850983DC
:1037E800A3A32274EE12152074FE1214B08A0A8B59
:1037F8000BECFAEDFB74141214FCE0F510A3E0F5E1
:103808001174161214FCE0FE74181214FCE0F50E84
:10381800A3E0F50F851882851983AC82AD83120663
:103828003A8A0C8B0DEA450D604985188285198303
:10383800122FD91207008A828B83E5824583602F75
:10384800A3A312379AE50845096024780E12167C5E
:10385800781012167CEEF9AC0CAD0DAA0AAB0B85EC
:10386800088285098312151E74041214C68006790D
:103878000E80027901022C7374F612152074FE1260
:1038880014B0740C1214FC12378F851882851983B2
:10389800F074011214FCE9F0E4F508F5097808124F
:1038A800167C750802780812167C74041214FC85BC
:1038B8008208858309780812167C12075474061248
:1038C80014C674021214C6806874F7121520EAFE32
:1038D800EBFF89087C197D0312076CEA5402600B20
:1038E800A908EEFAEFFB12062E8002790102235294
:1038F80074F612152074FF6A700374FF6B70168CCF
:10390800828D8312393EE4F08C828D83A3A3A312A7
:10391800393EA3801812073C8A088B09A808A90910
:10392800E849600D8882898374FF122454A3A3E4B4
:10393800F07F020215F274FFF0A3F08C828D83A34E
:10394800A32274F612152012073C8A828B83E58223
:1039580045836006A3A3E0FA80027A007B0080D149
:1039680074F21215208A088B09ECFEEDFF740E1212
:1039780014FCE0F50A12073C8A0C8B0DA80CA90D63
:10398800E8497026EEFCEFFD7AFF7BFF12073C8AC0
:103998000C8B0DA80CA90DE84970047911801688C4
:1039A800828983E508F0A3E509F088828983A3A3C7
:1039B800E50AF079007F060215F274EE121520EA86
:1039C800FEEBFF8C088D09890C74141214FC123A52
:1039D8008C74161214FC122FD9750D00E849600377
:1039E800023A807402650C6003023A7B7412121466
:1039F800FC123A96FCA3E0F9EC2400F50EE439F544
:103A08000FEAF4F8EBF4F9EC58F8E50F59F9E8493E
:103A1800705CE5082406F8ED3400F9880A890B88FB
:103A280082F583123AA112076C8A108B11E50E6594
:103A3800107004E50F65116042780E12167C850A35
:103A480082850B83123AA112077274021214C6E916
:103A5800F50D7027780E12167C850882850983A3D8
:103A6800A3123A9F12078474021214C6800D750DB2
:103A7800808008750D0D8003750D0BA90D02313876
:103A88008E828F83123A9022E0F8A3E0F922123A4C
:103A98009088828983E022A3A3E0FCA3E0FDEEFAEC
:103AA800EFFB223400F50D850C82F58322E028FE19
:103AB800A3E039FF8E828F832274F2121520EAFE6A
:103AC800EBFF890B7401650B600E7402650B706A5D
:103AD8007901120940E97062EEFAEFFB1207368AA3
:103AE800088B09EA45096047750A00800B7C177D39
:103AF800007900120EB6050A9002E6E0F8E50AC35E
:103B0800985021E50A75F017A4F8A9F08508828570
:103B18000983A3A3E028FAA3E039FB8A828B8312E6
:103B2800254170C985088285098374FFF0A3F07C5C
:103B3800197D03EEFAEFFB1207660239BD74F21223
:103B480015208A088B09ECFEEDFF740E1214FC1286
:103B58003322900A71E0F4603D7A097B00120EC2AC
:103B6800EA4B60328A828B8374B1F0A3E41237B4D3
:103B7800A31237B2A3E508F0A3E509123BA1EEF0C2
:103B8800A3EF123BA1A3A3E50AF0A3E50BF0900A6B
:103B980071E0F9120ECE0239BDF08A828B83A3A39D
:103BA800A3A3A322C082C0839061907404F0A3747D
:103BB80048F0A37402F09061807440F09061BC7486
:103BC80003F09061877419F0906265741BF090623D
:103BD80049E0C3941390619C400A7409F0906066B0
:103BE80074018007740DF0906066E4F090619A7437
:103BF80033F0A37455F09061A0743AF090053FE05B
:103C080064017009C2919003A6746780059003A6A9
:103C18007461F090230EE493906186F0902308E499
:103C280093F46027E493540FF8906185E06860127C
:103C3800E5C654804449F5C6E59E547F644970F84A
:103C4800E8F053C680E59E547F70FA7905120C821D
:103C5800023DDAC082C083E5A8F853A87E9061814E
:103C6800E4F0A3F0A3F0C2BA539AFEC289759B0090
:103C7800C2C275E90075910075BF0075A91175B9C3
:103C880005906181F0A374C0F0A3E4F0D2BA439A1E
:103C98000174805842A8023DDAC082C08374F812C9
:103CA80014B09003A4E0F8A3E0F9E8497003023DDA
:103CB800CF9003A4E05440602379088518828519C1
:103CC80083AA82AB83120AF6851882851983AA8291
:103CD800AB831207F09003A4E054BFF0E054806077
:103CE80010790C7A657B05120AF69003A4E0547FDC
:103CF800F0E0A2E0503190619A7433F0A37455F06B
:103D08009061A0743AF090053FE064017009C29197
:103D18009003A6746780059003A67461F01207F6F5
:103D28009003A4E054FEF0E05402603190619A746C
:103D38003FF0A3745AF09061A0747FF090053FE0C3
:103D480064017009D2919003A6747180059003A64E
:103D5800746AF01207F69003A4E054FDF0E05404EE
:103D6800601390230CE493906186F01207FC900393
:103D7800A4E054FBF0E05408601390230DE4939002
:103D88006186F01207FC9003A4E054F7F0E05410A9
:103D9800601390230EE493906186F01207FC900361
:103DA800A4E054EFF0E05420600A1207FC9003A44A
:103DB800E054DFF0A3E05401600D120A1E1208025D
:103DC8009003A5E054FEF074081214C6023DDAF020
:103DD800A3F0D083D08202011F74EC12152074F472
:103DE8001214B0851882851983AC82AD83758381DE
:103DF80075828874041213C390230C93F460030231
:103E08003F6D907808E0C394025003023F4D74045C
:103E18001214FCAC82AD83758381758242740812DA
:103E280013C38518828519838582128583137404C8
:103E38001214FCAC82AD83750EFF750FFF7FFF7EF9
:103E480000750C48750D78801574086E7003023E75
:103E5800E174096E7003023EE1740A6E607B850CA2
:103E680082850D8378081213688C828D83A909E5F1
:103E78000AC9F8881074187808121296E5104508CF
:103E8800F8C3E098A3E099850C82850D8378081221
:103E9800136840188C828D8374187808121296E57E
:103EA800104508F8E0C398F8A3E0801C7418780857
:103EB800121296E5104508FAE9FB8C828D83E0F82A
:103EC800A3E0F9EAC398F8EB99F9C3E8950EE995E8
:103ED8000F5006880E890FEEFF0EE50C2404F50C32
:103EE800E50D3400F50DEEC394135003023E5174F2
:103EF800FF650E700474FF650F60238F08740278E5
:103F08000812149D74482508F58274783509F583DC
:103F18007808121368851282851383E508F0EC246B
:103F280002FCED3400FD851282851383A38582127D
:103F3800858313740C1214FCE5826C7003E5836DA1
:103F48006003023E3F750801750900780812167C67
:103F580074021214FCAC82AD837AC37B081210A8D9
:103F680074021214C6740C1214C67F0C0215F2C027
:103F780082C0839061AE7468F0A3746AF090624561
:103F880074FBF0A304F053F4FD43FE0290053F7464
:103F980001F09061A0E0643A90619A70237433F064
:103FA800A37455F09061A0743AF07401640170092B
:103FB800C2919003A6746780289003A6746180213B
:103FC800743FF0A3745AF09061A0747FF074016498
:103FD800017009D2919003A6747180059003A674AC
:103FE8006A023DD97F080215F2C082C0839004F1AD
:103FF800E06401700A9004F6E06004790C800279AC
:1040080000023DDAC082C08375E1F19004F4E060FB
:104018005B14600914605F14605714705E120A30F4
:104028009004EAE0F97AEB7B04120C047AD67BBEA2
:104038007C897D8E120C3A7A557B557C557D001211
:104048000C109004F5E0F9120C1C7901120C769012
:1040580004E8E0F8A3E0C82416F582E83400F58304
:104068007448F0A3740AF07900023DDA120A368027
:10407800AF120A3C80AA120A4280A5791280EA741B
:10408800F012152075D90D9004D5E0A2E0E43313A1
:1040980013F89004EAE0C4333354C0484401F5D916
:1040A80078E8790488828983A3A3A3E0F5D9888274
:1040B8008983A3A882A983E864EE7003E964047085
:1040C800E378D5790488828983A3E0F5D988828941
:1040D80083A3A882A983E864DB7003E9640470E51C
:1040E80075E1959004D5E0F97AD67B04120C0A9014
:1040F8000A9374E2F0A37409F0A3743EF0A3740B5E
:10410800F0A3743EF0A3740BF0A3743EF0A3740BF9
:10411800F0A374E8F0A37409F0A3743EF0A3740B41
:10412800F0A37400F0A3740AF0900AA1743EF0A3FF
:10413800740BF0A3743EF0A3740BF0A3743EF0A3C9
:10414800740BF0A3743EF0A3740BF0A3743EF0A3B9
:10415800740BF0A3743EF0A3740BF09004F4E064C5
:10416800019004E87012E0F8A3E0F5838882A3A325
:104178007508007509088010E0F8A3E0F5838882C7
:10418800A3A3750804750900750A00750B00780863
:104198001212E1750CFF750DFF750EFF750F007893
:1041A80008790C12132F9004E8E0F8A3E0C8240E55
:1041B800F582E83400F58378081213779004E8E074
:1041C800F8A3E0C82414F582E83400F5837413F0EA
:1041D8009003A27402F0023FEC74F71215209004C9
:1041E800FAE02407F5D99004EAE0C4333354C0F563
:1041F800D978E8790488828983A3A3A3E0F5D988CC
:10420800828983A3A882A983E864EE7003E9640421
:1042180070E39004FAE0601F78E87904FAE8241360
:10422800F582E93400F583E0F5D988828983A3A86B
:1042380082A9831AEA70E690051AE02407F5D99056
:1042480004EAE0C4333354C04404F5D978E8790467
:1042580088828983A3A3A3E0F5D988828983A3A848
:1042680082A983E864EE7003E9640470E390051A98
:10427800E0601F78E87904FAE82433F582E934002D
:10428800F583E0F5D988828983A3A882A9831AEAED
:1042980070E675E195900A9374EEF0A37409F0A3A3
:1042A800743EF0A3740BF0A3743EF0A3740BF0A358
:1042B800743EF0A3740BF0A374E8F0A37409F0A3A0
:1042C800743EF0A3740BF0A37400F0A3740AF0908A
:1042D8000AA1743EF0A3740BF0A3743EF0A3740B10
:1042E800F0A3743EF0A3740BF0A3743EF0A3740B18
:1042F800F0A3743EF0A3740BF0A3743EF0A3740B08
:10430800F09004E8E0F8A3E0C8240EF582E8340051
:10431800F58374FFF0A3F0A3F0A3F09004E8E0F8AD
:10432800A3E0C82414F582E83400F5837412F090F1
:1043380003A27401F0FF0215F274F712152090041D
:10434800FAE02407F5D99004EAE0C4333354C044B2
:1043580002F5D978E8790488828983A3A3A3E0F5D4
:10436800D988828983A3A882A983E864EE7003E9C7
:10437800640470E39004FAE0601F78E87904FAE8CE
:104388002413F582E93400F583E0F5D9888289831E
:10439800A3A882A9831AEA70E675E195900A937436
:1043A800FAF0A37409F0A374FAF0A37409F0A374E3
:1043B800FAF0A37409F0A374FAF0A37409F0A374D3
:1043C800FAF0A37409F0A374FAF0A37409F0A374C3
:1043D80000F0A3740AF0900AA1743EF0A3740BF0E5
:1043E800A3743EF0A3740BF0A3743EF0A3740BF017
:1043F800A3743EF0A3740BF0A3743EF0A3740BF007
:10440800A3743EF0A3740BF09004E8E0F8A3E0C8AE
:10441800240EF582E83400F58374FFF0A3F0A3F0CE
:10442800A3F09004E8E0F8A3E0C82414F582E83487
:1044380000F5837414F09003A27404F00247087422
:10444800F71215209004FAE02407F5D99004EAE061
:10445800C4333354C04406F5D978E879048882898E
:1044680083A3A3A3E0F5D988828983A3A882A9831B
:10447800E864EE7003E9640470E39004FAE0601FF6
:1044880078E87904FAE82413F582E93400F583E042
:10449800F5D988828983A3A882A9831AEA70E6904D
:1044A800051AE02407F5D99004EAE0C4333354C070
:1044B8004404F5D978E8790488828983A3A3A3E022
:1044C800F5D988828983A3A882A983E864EE70035A
:1044D800E9640470E390051AE0601F78E87904FA4B
:1044E800E82433F582E93400F583E0F5D988828938
:1044F80083A3A882A9831AEA70E675E195900A93C6
:1045080074F4F0A37409F0A3743EF0A3740BF0A341
:10451800743EF0A3740BF0A3743EF0A3740BF0A3E5
:10452800743EF0A3740BF0A3743EF0A3740BF0A3D5
:104538007400F0A3740AF0900AA1743EF0A3740BFF
:10454800F0A3743EF0A3740BF0A3743EF0A3740BB5
:10455800F0A3743EF0A3740BF0A3743EF0A3740BA5
:10456800F0A3743EF0A3740BF09004E8E0F8A3E025
:10457800C8240EF582E83400F58374FFF0A3F0A395
:10458800F0A3F09004E8E0F8A3E0C82414F582E86A
:104598003400F5837415F09003A27403F002470801
:1045A800C082C0839004E8E0F8A3E0C82406F5823E
:1045B800E83400F583E4023DD774F7121520900320
:1045C800D0E0F875F003A4C8AAF02AF974D228F844
:1045D800740339F9E82405FAE93400FB8A828B83ED
:1045E800E0FCA3E0FD88828983A3A3A3A3A3A3A3DC
:1045F800A3A3ECF0A3EDF088828983A3A3A3A3A3CC
:10460800A3A3E024FFF8A3E034FFF98A828B83E8B0
:10461800F0A3E9F002470874F7121520EAFEEBFF51
:104628009061D0E060030246FC75D90E75D9037518
:10463800D904EE248BF582EF3400F583E582240853
:10464800F8E5833400F9E0F5D9A3E865827003E959
:10465800658370F2EE2483F582EF3400F583E582FA
:104668002404F8E5833400F9E0F5D9A3E8658270FD
:1046780003E9658370F275E1957908EE248BFAEF0A
:104688003400FB120AEA7904EE2483FAEF3400FBC3
:10469800120AEA7C00EEF8EFF9ECFAC3E49AFA950C
:1046A800E0FBEE2AFAEF3BFBEA248AF582EB3400C2
:1046B800F583E0C0E0E824AAF582E93400F583D068
:1046C800E0F00C88828983A3A882A983ECC39408AC
:1046D80040C7EE246FF582EF3400F583E0F8A3E0DD
:1046E800F9EE2471F582EF3400F583E8F0A3E9F0E0
:1046F8007901800279008008F0EEA2E092AF79009B
:104708007F010215F2C082C08375D90275D903757D
:10471800D90575E195EA246FF582EB3400F583E05D
:10472800F8A3E0F9EA2471F582EB3400F583E8F0A8
:10473800A3E9F07901023DDA74F6121520EAFEEBDE
:10474800FF9005457406F075084575090578081247
:10475800167C7C017903120B3274021214C675D9C7
:104768000675D903758245758305E0F5D9A3E582F9
:10477800644A7004E583640570F075E1959003A2BE
:10478800E06408701EEE246FF582EF3400F583E0D4
:10479800F8A3E0F9EE2471F582EF3400F583E8F030
:1047A800A3E9F07901024A0E74F6121520EAFEEB2D
:1047B800FF9061D0E070667801900545740BF09029
:1047C80003A2E06407701975084575090578081291
:1047D800167C7C017903120B3274021214C6780518
:1047E800740128F5D975D903758245758305E8FAEA
:1047F800E0F5D9A31AEA70F875E195EE246FF58211
:10480800EF3400F583E0F8A3E0F9EE2471F582EFC8
:104818003400F583E8F0A3E9F07901800279000219
:104828004A0E74F7121520EAFEEBFF75D90375D905
:104838000375D90DEE24DDF582EF3400F583E0F53C
:10484800D975E1957904120C40EE246FF582EF34A6
:1048580000F583E0F8A3E0F9EE2471F582EF340067
:10486800F583E8F0A3E9F0790102470874F6121518
:1048780020EAFEEBFF9061D0E0F87480C398FAEE6E
:104888002482F582EF3400F583E060047804800226
:104898007800E8240BF8EAC39850030249397D09E7
:1048A800900545EDF0EE24E2F8EF3400F97A467B06
:1048B800057C0888828983E08A828B83F0888289D4
:1048C80083A3A882A9838A828B83A3AA82AB831C31
:1048D800EC70E0EE2482F582EF3400F583E0601D91
:1048E800750845750905780812167C7C097903EE68
:1048F800FAEFFB120B3274021214C67D0D74012DEF
:10490800F5D975D9037582457583058D08E0F5D904
:10491800A31508E50870F675E1957904120C40EEC8
:10492800241DF582EF3400F583E4F0A3F0790180CB
:10493800027900024A0E74F6121520EAFEEBFF9087
:1049480061D0E0F87480C398FAEE2482F582EF34DF
:1049580000F583E06004780480027800E82408F811
:10496800EAC3985003024A0C7806900545740CF087
:104978009003BFE0900546F09003C0E0900547F033
:104988009003C1E0900548F09003C2E0900549F01B
:104998009003C3E090054AF0EE2482F582EF3400DC
:1049A800F583E0601B750845750905780812167CC3
:1049B8007C067903EEFA120B3274021214C6780AD6
:1049C800740128F5D975D90375824575830588085A
:1049D800E0F5D9A31508E50870F675E19579041294
:1049E8000C40EE246FF582EF3400F583E0F8A3E085
:1049F800F9EE2471F582EF3400F583E8F0A3E9F0CD
:104A08007901800279007F020215F274F6121520EE
:104A1800EAFEEBFF9061D0E0F87480C398FAEE24C8
:104A280082F582EF3400F583E06004780480027830
:104A380000E82404F8EAC3985003024AED7802908B
:104A48000545E8F0EE24F4F582EF3400F583E090B4
:104A58000546F0EE2482F582EF3400F583E0601B12
:104A6800750845750905780812167C7C027903EEED
:104A7800FA120B3274021214C67806740128F5D99A
:104A880075D9037582457583058808E0F5D9A3159E
:104A980008E50870F675E195EE2473F582EF3400A9
:104AA800F583E4F0EE247FF582EF3400F583E4F03B
:104AB800EE241DF582EF3400F583E4F0A3F07904C9
:104AC800120C40EE240DF582EF3400F583E0F8A3D4
:104AD800E0F9EE2471F582EF3400F583E8F0A3E9FC
:104AE800F0790180027900024A0E74F612152090BE
:104AF80061D0E0F87480C398FCEA2482F582EB3434
:104B080000F583E06004780480027800E82404F863
:104B1800ECC398405B79029005457407F0EA24F5E8
:104B2800F582EB3400F583E0900546F0EA2482F53F
:104B380082EB3400F583E06018750845750905783F
:104B48000812167C7C0209120B3274021214C67900
:104B580006740129F5D975D903758245758305E968
:104B6800F8E0F5D9A318E870F875E19579018002A5
:104B78007900024A0E74F5121520E9FCA2AFE4335D
:104B8800F50AC2AF7D0080010DEA246EF582EB3490
:104B980000F583E0F8EDC398501A8D08EA2508F867
:104BA800EB3400F9E8246AF582E93400F583E06C17
:104BB80070D68024EA246EF8EB3400F9E0FEEA2E81
:104BC800FAEB3400FBEA246AF582EB3400F583EC57
:104BD800F088828983E004F0E50AA2E092AF7F03BF
:104BE8000215F274F6121520A2AFE433FDC2AFEA43
:104BF800246EF582EB3400F583E014F07C00603617
:104C08008C08EA2508F8EB3400F9E8246BF582E90A
:104C18003400F583E0C0E0E8246AF582E93400F561
:104C280083D0E0F00CEA246EF582EB3400F583E0E3
:104C3800F8ECC39840CAEA246DF582EB3400F5839A
:104C480074FFF0EA2469F582EB3400F583E4F0EDB3
:104C5800A2E092AF024A0EC082C083E5A8F8C2AFB4
:104C6800EA246AF582EB3400F583E9F0EA2469F571
:104C780082EB3400F583E4F0E8A2E7A2E792AF0202
:104C88003DDA74F3121520EAFEEBFFECFAEDFB8A2D
:104C9800828B83A3A3A3A3E0541FF0EE2436F582EE
:104CA800EF3400F583E4F0F50AEEFCEFFD8A828B21
:104CB80083E0C0E0EC245DF582ED3400F583D0E0BC
:104CC800F0750B00E50A33333354F8F50C8A828B00
:104CD80083E0F508750900E50B780812147EE508ED
:104CE800A2E0502FEE2436F8EF3400F98882898349
:104CF800E0F508EE2508F508EF3400F509E5082485
:104D080038F582E5093400F583E50CF0888289835B
:104D1800E004F0050B050CE50BC3940840AF050A49
:104D28008A828B83A3AA82AB838C828D83A3AC8275
:104D3800AD83E50AC394055003024CB57F050215FF
:104D4800F274F71215209003CEE064017003024E4E
:104D5800A77A009003D4E06003024EA77401F0A381
:104D6800E4F0A3F090043404F0900439F09003D7F1
:104D7800E4F0A3F0A3F0A3F09003E104F09004079B
:104D8800E4F09003EAF0A3F0A3F0A3F0A3F0A3F0FB
:104D9800A3F0900451F0900445F090043A7480F028
:104DA800A3E4F0900440F09004BCF0A3F0A3F0A3B7
:104DB800F0A3F0A3F0A3F0A3F09004C5F09004547E
:104DC800F09004A4F0A3F0A3F0A3F0A3F0A3F0A341
:104DD800F0A3F0A3F0A3F09004B0F09004B2F09028
:104DE80004AEF09004C8F0A3F0A3F0A3F0A3F0A3DE
:104DF800F0A3F0A3F078CE7903E8246EF582E934C5
:104E080000F58374FFF00A88828983A3A882A983A6
:104E1800EAC3940440E37ACE7B0378DC7904888281
:104E28008983E0C0E0EA2461F582EB3400F583D0A1
:104E3800E0F088828983A3A882A9838A828B83A3CE
:104E4800AA82AB83E864E17003E9640470D07ACE87
:104E58007B0378B5790388828983A3E0C0E0EA24DC
:104E6800E6F582EB3400F583D0E0F088828983A3ED
:104E7800A882A9838A828B83A3AA82AB83E864BDB4
:104E88007003E9640370CF9003CEE004F06401700E
:104E9800089003D6E09003D0F07AD27B0380047A9E
:104EA800007B00024708C082C0839003D5E4F090DD
:104EB80003D4F09003CEF0A3F0A374FFF075E1F1F2
:104EC800023DDAC082C083780079009003D5E060A3
:104ED8000478D2790388828983A3A3A3A3E0F90283
:104EE8003DDA74F6121520EAFEEBFFEE2463F58234
:104EF800EF3400F583E0F8A3E0F9E8497003024FC6
:104F08008FEE2463F8EF3400F97A007B00A2AFE457
:104F180033F508C2AF88828983E0FCA3E0FDEC4D3D
:104F2800603A88828983E0FAA3E0FB8A828B83E077
:104F3800FCA3E0FD88828983ECF0A3EDF08A828BE4
:104F480083E4F0A3F088828983E0FCA3E0FDEC4DC4
:104F5800700A88828983A3A3E4F0A3F0E508A2E09D
:104F680092AF1210CC9004E2E004F09004E3E00465
:104F7800F0EE2463F582EF3400F583E0F8A3E0F95E
:104F8800E8496003024F098E828F83A3A3A3E060E0
:104F98000F8E828F83A3A3A3E4F09003CFE014F0D5
:104FA8009003CEE014F070069003D074FFF08E8268
:104FB8008F83A3A3E4F09004E1E0700D9003CFE0A9
:104FC800640170057900120C22EEFAEFFB120B62F5
:104FD800024A0E74F7121520EAFEEBFF8E828F83C9
:104FE800A3A3A3A3E0FA7B00120844EEFAEFFB1296
:104FF8000AB4120B4A024708C082C08378B5790305
:1050080088828983A3E4F088828983A3A882A983FC
:10501800E864BD7003E9640370E69003B6740102A6
:105028003DD974F6121520EAFEEBFFEC2403F8EDE7
:105038003400F988088909EC2407F8ED3400F9E808
:10504800FCE9FD8C828D83E0F8A3E0F98508828570
:105058000983E0FAA3E0FB121425EE240DF582EF94
:105068003400F583E8F0A3E9F08C828D83E0F8A39F
:10507800E0F9850882850983E0FAA3E0FB1214258C
:105088008B09EA45096013EE240DF582EF3400F52B
:1050980083E02401F0A3E03400F0024A0E74F61213
:1050A8001520EAFEEBFFEE242EF582EF3400F5839F
:1050B800E0FCA3E0FD780079FAECFAEDFB12142588
:1050C800EE246FF582EF3400F583E8F0A3E9F07879
:1050D8000079FAECFAEDFB1214258B09EA45096010
:1050E80013EE246FF582EF3400F583E02401F0A37A
:1050F800E03400F0024A0E74EC121520EAFEEBFFD1
:1051080074141214FC7808121368120BE68A0C8BBC
:105118000D8C0E8D0F751002751100751200751328
:1051280000780C79101212CE7510FF7511FF7512E8
:10513800FF780C791012132F780C1216788E828F44
:1051480083E0F8A3E0F5838882A3A31213861220D4
:105158008574041214C6E960030252638E828F8339
:10516800E02402F8A3E03400F9E8FAE9FB8A828B2C
:105178008378081212F48A828B837508FF7509FFF9
:10518800750AFF750B007808121355EE240BF5828B
:10519800EF3400F583C082C0838E828F83A3A3A3DC
:1051A800A3A3E02401F8A3E03400F9D083D082E07F
:1051B800687003A3E069700579010252658E828FD9
:1051C80083A3A3A3A3A3A3A3E02401F0A3E0340033
:1051D800F0EE2473F582EF3400F583E06401703655
:1051E800EE2474F582EF3400F583E0F8A3E0F98E3D
:1051F800828F83A3A3A3A3A3A3A3E0687003A3E060
:10520800697013EE2474F582EF3400F583E024010D
:10521800F0A3E03400F0EE247FF582EF3400F5834C
:10522800E064017036EE2480F582EF3400F583E007
:10523800F8A3E0F98E828F83A3A3A3A3A3A3A3E07B
:10524800687003A3E0697013EE2480F582EF3400E0
:10525800F583E02401F0A3E03400F07900023F7206
:1052680074F6121520E9FEECFFEA2462F582EB34AD
:1052780000F583E0640160030253119061D0E0F50A
:1052880008EA2482F582EB3400F583E060047804B0
:10529800800278007480C39508FC95E0FDEF28F83B
:1052A800E43400F9E82402F8E93400F9EC98ED99BF
:1052B800A2D265D033404E740A1214FCE0F508A35C
:1052C800E0F509EA2482F582EB3400F583E0601505
:1052D800780812167CEFFCEEF9120B3274021214E5
:1052E800C674042FFF74012FF5D98ED9EF600F858E
:1052F8000882850983F8E0F5D9A318E870F875E104
:1053080095790080067907800279FF024A0E74F7C2
:10531800121520A2AFE433FEC2AF8A828B83E0F875
:10532800A3E0F9E8498A828B83600AA3A3E0F8A383
:10533800E0F5838882ECF0A3EDF08A828B83A3A347
:10534800ECF0A3EDF08C828D83E4F0A302470074A7
:10535800F7121520E96021F88C828D83E08A828B10
:1053680083F08C828D83A3AC82AD838A828B83A3E6
:10537800AA82AB8318E870E0ECFAEDFB02470874E8
:10538800F4121520907803E064427055900544E0CB
:1053980014F0704DC2AF1253A100782AD0E0F6186D
:1053A800D0E0F6E59F540770057509FF800375097D
:1053B8007FC4C0E07829E6F50808E65509F50974C0
:1053C8000B780812148ED0E02508F8906270E0A2DD
:1053D800E740F8E8C333906272F0906270E0D2E080
:1053E800F09003D0E0F47003025781E0F875F00301
:1053F800A4C8AAF02AF974D228FE740339FFEE244F
:1054080001F582EF3401F583E0F8A3E0F9E849609B
:105418001EEE2401F582EF3401F583E0FAA3E0FBE8
:10542800EE2400F582EF3401F583E0F9120EF28ED6
:10543800828F83A3A3A3A3A3A3A3E0F8A3E0F98E79
:10544800828F83A3A3A3A3A3E8F0A3E9F0906054F9
:10545800E09003A9F0906055E09003AAF0906056A0
:10546800E09003ABF0906057E09003ACF090605888
:10547800E09003ADF0906059E09003AEF090605A70
:10548800E09003AFF090605BE09003B0F090605C58
:10549800E0FC9003B1F090605DE0FB9003B2F09007
:1054A800605EE0FD9003B3F090605FE0FA9003B4B3
:1054B800F09003AFE08C082508F8E43400F98D0873
:1054C800E82508F8E93400F98B08E82508F8E934F4
:1054D80000F98A08E82508FAE93400FBEE24F6F515
:1054E80082EF3400F583E02AF0A3E03BF08C08EE6D
:1054F80024F8F582EF3400F583E02508F0A3E034C2
:1055080000F0EE24FAF582EF3400F583E02401F090
:10551800A3E03400F0EE24FEF582EF3400F583E0DA
:10552800F8A3E0F9E8496042906000E0C333FCE486
:1055380033FDE82CF582E93DF583E02AF0A3E03B52
:10554800F0906000E0FA9003B1E0FCEAC333FAE4BB
:1055580033FBE82AF8E93BF9E8244AF582E9340004
:10556800F583E02CF0A3E03400F09003AFE0701175
:105578009003B2E0700BA3E07007A3E0700302563B
:105588007E8E828F83A3A3A3A3A3E0F8A3E0F9EE02
:10559800240DF582EF3400F583E028F8A3E039F90B
:1055A800EE240BF582EF3400F583E8F0A3E9F0EE82
:1055B800240FF582EF3400F583E4F0EE241CF58225
:1055C800EF3400F583E06401701EEE2420F582EFCD
:1055D8003400F583E0F8A3E0F9EE241DF582EF34FA
:1055E80000F583E8F0A3E9F09003AAE06052EE2406
:1055F8001CF582EF3400F5837401F0EE2469F5821E
:10560800EF3400F583E07038EE2473F582EF340050
:10561800F583E0702BEE247FF582EF3400F583E00C
:10562800701EEE2420F582EF3400F583E0F8A3E045
:10563800F9EE241DF582EF3400F583E8F0A3E9F0D4
:10564800906062E070030257318E828F83E0F8A386
:10565800E0F9E82406FCE93400FDE82402FAE9341C
:1056680000FB120BE08E828F83E0F8A3E0C82412BF
:10567800F582E80257379003B1E0603AEE240FF55F
:1056880082EF3400F583E4F0EE241CF582EF340059
:10569800F583E064017040EE2420F582EF3400F5D4
:1056A80083E0F8A3E0F9EE241DF582EF3400F583DA
:1056B800E8F0A3E98020EE24FCF582EF3400F583BE
:1056C800E02401F0A3E03400F0EE241DF582EF346D
:1056D80000F583E4F0A3F0EE240BF582EF3400F537
:1056E80083E0F8A3E0F98E828F83A3A3A3A3A3E0AA
:1056F800687003A3E06960030255F0EE240FF58299
:10570800EF3400F583E060128E828F83A3A3A3A3F6
:10571800A3E064057002A3E0600479088002793E82
:10572800EEFAEFFB120ABA8050EE241DF582EF3430
:1057380000F583E4F0A3F09061C8E06006121A4116
:10574800E970F48E828F83A3A3A3E0602C9061C8D4
:10575800E070069060607480F0EEFAEFFB120BAA1E
:10576800E9640160147902EEFAEFFB121BEE120BEA
:105778009EE964016003120B4A7F040215F253BFCD
:10578800EF02011F74EC1215209003D0E0F875F0B9
:1057980003A4C8AAF02AF974D228FE740339FF902A
:1057A80061D0E07013EE2463F582EF3400F583E0F6
:1057B800F8A3E0F9E849600FEE241DF582EF340004
:1057C800F583E4F0A38053EE2469F582EF3400F505
:1057D80083E07047EE2473F582EF3400F583E070C0
:1057E8003AEE247FF582EF3400F583E0702DEE2445
:1057F8001CF582EF3400F583E06401701EEE24206E
:10580800F582EF3400F583E0F8A3E0F9EE241DF506
:1058180082EF3400F583E8F0A3E9F08E828F83A34A
:10582800A3A3A3A3E0F8A3E0F9EE241DF582EF34C7
:1058380000F583E028F8A3E039F9E8240108E93401
:1058480000F9EE2407F50AEF3400F50B850A82F516
:1058580083E8F0A3E9F0EE240BF582EF3400F5833A
:10586800C3E098A3E09950358E828F83A3A3A3A3A6
:10587800A3A3A3C082C083EE240BF582EF3400F506
:1058880083E0F8A3E0F9D083D082E0C398F8A3E0DE
:1058980099F9C3E894AAE994105035803BEE240B9B
:1058A800F582EF3400F583C082C0838E828F83A394
:1058B800A3A3A3A3A3A3E0F8A3E0F9D083D082E035
:1058C800C398F8A3E099F9C3E894ABE99410500899
:1058D8009004E7E064017030EE241DF582EF340097
:1058E800F583E4F0A3F08E828F83A3A3A3A3A3E0A0
:1058F8002401F8A3E03400F98E828F83A3A3A3A325
:10590800A3A3A3E8F0A3E9F0EE2473F582EF340033
:10591800F583E064016003025B87EE2474F582EF8F
:105928003400F5831216938E828F83A3A3A3A3A3B7
:10593800A3A3E0FCA3E0FD8E828F83A3A3A3A3A36C
:10594800E0FAA3E0FB1219FA74021214C6E9700314
:10595800025B87EE2474F8EF3400F9880889098817
:1059680082F583E0F8A3E0F9850A82850B83E8F0E5
:10597800A3E9F0EE2476FCEF3400FDEEFAEFFB121B
:105988000AC6EE247BF582EF3400F583E0F8A3E045
:10599800F9EE2420F582EF3400F583E8F0A3E9F06E
:1059A800EE241CF582EF3400F583E4F0EE241DF5B7
:1059B80082EF3400F583E4F0A3F0EE240FF582EFD4
:1059C8003400F5837401F0850A82850B83E0F8A31F
:1059D800E0F9EE240DF582EF3400F583E028F8A312
:1059E800E039F9EE240BF582EF3400F583E8F0A3F3
:1059F800E9F08E828F83A3A3A3A3A3E0FCA3E0FD19
:105A0800850882850983E0FAA3E0FB121A398A081F
:105A18008B09EE242EF582EF3400F583E0FAA3E03B
:105A2800FBE4F50AF50B8A0C8B0DF50EF50F7808DB
:105A3800790C121216EE2477F582EF3400F583E024
:105A4800F50CA3E0F50D7808790C1212CEEE247946
:105A5800F582EF3400F583E06A7003A3E06B7044CD
:105A6800EE247DF582EF3400F583E0F8A3E0F9EE4B
:105A78002432F582EF3400F583E0687003A3E0690F
:105A88007022EE247BF582EF3400F583E0F8A3E082
:105A9800F9EE2430F582EF3400F583E0687003A353
:105AA800E0696052EE247DF582EF3400F583E0F57D
:105AB8000CA3E0F50D7404780C12148E780C1216F1
:105AC8007CEE247BF582EF3400F583121693EE24E6
:105AD80079F582EF3400F583E0FCA3E0C313FDEC15
:105AE80013FC8E828F83A3A3A3A3E0FA7B00120882
:105AF8004A74041214C6EE2476F582EF3400F58356
:105B0800E0C0E0EE242BF582EF3400F583D0E0F01E
:105B1800EE2479F582EF3400F583E0F8A3E0F9EE9E
:105B2800242EF582EF3400F583E8F0A3E9F0EE24A3
:105B38007BF582EF3400F583E0F8A3E0F9EE24303A
